:020000040800F2
:10000000683202207D020008715B0008FD53000881
:100010006D5B000841120008299C000800000000E8
:10002000000000000000000000000000C501000802
:10003000DD3D000800000000190200083D6D0008C9
:10004000A1020008A1020008A1020008A102000804
:10005000A1020008A1020008A1020008A1020008F4
:10006000A1020008A1020008A1020008A1020008E4
:10007000A1020008A1020008A1020008A1020008D4
:10008000A1020008A1020008A1020008A1020008C4
:1000900001140008A1020008A1020008A102000842
:1000A000A1020008A1020008A1020008A1020008A4
:1000B000A1020008A1020008A1020008A102000894
:1000C000A1020008A1020008A1020008A102000884
:1000D000A1020008097A0008A1020008ED7A0008D0
:1000E000A1020008A1020008115C0008A10200089A
:1000F000A1020008A1020008A1020008A102000854
:10010000A1020008A1020008A1020008A102000843
:10011000A1020008A1020008A1020008A102000833
:10012000A1020008A1020008A1020008A102000823
:10013000A1020008A1020008A1020008A102000813
:1001400099150008A1020008A1020008015C00083E
:10015000A1020008A1020008A1020008A1020008F3
:10016000A1020008A1020008A1020008A1020008E3
:10017000A1020008A1020008A1020008000000007E
:10018000A1020008A1020008A10200088579000868
:10019000A1020008A1020008A1020008A1020008B3
:1001A0000000000000000000A1020008DFF810D0ED
:1001B00000F032FC0048004739B90008AFF3008076
:1001C000683202202A4B19680868B0E8F04F80F3C3
:1001D0000988BFF36F8F4FF0000080F311887047DC
:1001E0000000000006480068006880F3088862B6D6
:1001F00061B6BFF34F8FBFF36F8F00DF00BF00BF4B
:1002000008ED00E0DFF80C00016841F470010160C6
:10021000704700BF88ED00E0EFF30980BFF36F8FF8
:10022000134B1A681EF0100F08BF20ED108A20E94A
:10023000F04F106008B44FF0100080F31188BFF346
:100240004F8FBFF36F8F0DF0FBFA4FF0000080F37C
:10025000118808BC19680868B0E8F04F1EF0100F4C
:1002600008BFB0EC108A80F30988BFF36F8F704726
:1002700040000020EFF30580704700000948016846
:1002800041F4700101600848804708480047FEE7D4
:10029000FEE7FEE7FEE7FEE7FEE7FEE7FEE7FEE736
:1002A000FEE7000088ED00E0516D0008AD01000898
:1002B0009FED1A1AF5EE000A40EE010ABDEEE00AC3
:1002C000F5EEC00A10EE100AF1EE10FA38BF401E2B
:1002D00000EE100A1349F7EE001AB8EEC00A30EE2D
:1002E000C00ADFED0F0A20EE200AFCEEC00A10EE75
:1002F000900AC0F3080000EE900A01EB8000F8EECF
:10030000600A90ED011A70EE600A90ED000A71EE3D
:10031000E01A21EE800A00EE810A704783F9223E3E
:1003200000000044CCE70008DFED190AB5EEC00A72
:1003300060EE200ABDEEE01A11EE100AF1EE10FA9E
:1003400038BF401E00EE100A1349F7EE001AB8EE4F
:10035000C00A30EEC00ADFED0F0A60EE200ABCEEE4
:10036000E00A10EE100AC0F3080000EE100A01EBDC
:100370008000B8EE400A90ED011A70EEC00A90EDD0
:10038000000A71EEE01A21EE800A00EE810A704741
:1003900083F9223E00000044CCE7000840EA010354
:1003A0009B0703D009E008C9121F08C0042AFAD22B
:1003B00003E011F8013B00F8013B521EF9D27047EF
:1003C000D2B201E000F8012B491EFBD27047002297
:1003D000F6E710B513460A4604461946FFF7F0FF44
:1003E000204610BD2DE9FE4F804681EA0300C00F74
:1003F0000C46009021F0004123F00045B8EB0200CC
:10040000A94105D24046214690461C460B4602466D
:1004100023F00040104347D0270DC7F30A00C3F371
:100420000A510290401A019040286BDAC3F313007E
:1004300040F4801B0098924620B10023D2EB030ABF
:1004400063EB0B0B01985946C0F14002504600F097
:1004500016FA06460D4650465946019A00F01EFA15
:1004600010EB08006141002487EA115284EAE77327
:100470001A4340D0009A62B3019A012A4FEA075208
:1004800015DC001B61EB02014FF0004202EA07524B
:10049000CDE90042001C41F5801132462B4600F0A8
:1004A00055FA03B0BDE8F08F40462146F9E7001B3E
:1004B00061EB0201001C41F5801300185B4120181C
:1004C000A2F5001747EB030140EAD570B6196D415C
:1004D00011E06D084FEA360645EAC0754FEA07524B
:1004E000001B61EB0201001C41F5801149084FEA35
:1004F00030000019514132462B4603B0BDE8F04FA1
:1005000000F015BA0098012240000023D0EB02024F
:1005100063EBE073009821464FEAE074B8EB00000B
:1005200061EB0401E9E783F000435BE781F0004100
:1005300058E72DE9FE4F81EA030404F0004421F05E
:10054000004100944FF0000B23F0004350EA0104F7
:100550005ED052EA03045BD0C3F30A54C1F30A55D8
:100560002C44A4F2F3340194A0FB0254C1F3130110
:1005700041F48011C3F3130343F4801301FB0244DD
:1005800000FB034E840A970A44EA815447EA8357E2
:10059000A4FB076802958D0A05FB07854FEA932C9B
:1005A00004FB0C542705029D4FEA065847EA16370C
:1005B000B5EB08056EEB070C870E920E47EA811724
:1005C00042EA8312A7FB0201B6EB0B0164EB0004C5
:1005D0002B0D43EA0C335E1844EB1C50DA465146AF
:1005E000E7FB0201C5F313044FEA0B3343EA14534C
:1005F0004FEA0432019C43EA0603A4F10C0402947E
:10060000009CCDE900B400F0A1F903B0BDE8F08F83
:1006100000200146F9E72DE9F04D81EA030404F0DA
:10062000004B21F0004514464FF0000A23F0004132
:1006300050EA050220D054EA01021DD0C5F30A5742
:100640000246C5F31303C1F31300C1F30A5640F485
:10065000801543F48013A7EB0608101BD64608F25A
:10066000FD3873EB050002D308F1010801E0921890
:100670005B41B8F1000F03DA00200146BDE8F08DC0
:1006800000204FF48011064684460EE0171B73EBE2
:10069000050705D3121B63EB050306434CEA010C67
:1006A00049084FEA300092185B4150EA0107EDD14A
:1006B00052EA030012D082EA040083EA05010843EB
:1006C00005D0101BAB4106D20122002306E0002218
:1006D0004FF0004302E06FF0010253101AEB0600E6
:1006E0004CEB085110EB0A0041EB0B01BDE8F04D5B
:1006F00000F01DB90EB5C10F80EAE0700844CA07CA
:10070000002140F233438DE80E000A460B4600F00C
:100710001DF903B000BD0EB540F233410291002136
:10072000CDE900110A460B4600F010F903B000BDF8
:1007300000F0004230F000400AD0C10D01F56071B8
:10074000C0F3160042EA0151C20840071143704746
:10075000002001467047000030B5041E71F100040E
:1007600004DB4FF00044404264EB0101141E73F1BE
:10077000000405DB1C464FF00043524263EB0403C8
:100780008B4208BF824230BD30B5041E71F10004B7
:1007900004DB4FF00044404264EB0101141E73F18E
:1007A000000405DB1C464FF00043524263EB040398
:1007B000994208BF904230BD01F0004330B421F0AF
:1007C000004150EA010206D00A0DA2F56072C1F3A1
:1007D0001301002A02DC30BC00207047440F44EAB9
:1007E000C104C100E01830BC00EBC25000F068B892
:1007F00030B50B46014600202022012409E021FAF1
:1008000002F59D4205D303FA02F5491B04FA02F5ED
:100810002844151EA2F10102F1DC30BD2DE9F05F84
:100820000546002092469B4688460646814640245F
:100830001BE0284641464746224600F0FFF8534653
:100840005A46C01A914110D311461846224600F06C
:1008500016F82D1A67EB01084F46224601200021A9
:1008600000F00DF817EB00094E41201EA4F1010421
:10087000DFDC484631462A464346BDE8F09F202A41
:1008800004DB203A00FA02F1002070479140C2F1E7
:10089000200320FA03F3194390407047202A06DB17
:1008A000CB17203A41FA02F043EAE07306E041FA3E
:1008B00002F3D040C2F1200291400843194670472C
:1008C0000029A8BF7047401C490008BF20F0010064
:1008D000704710B4B0FA80FC00FA0CF050EA010442
:1008E00004BF10BC704749B1CCF1200421FA04F4D4
:1008F00011FA0CF118BF012121430843A3EB0C01AD
:10090000CB1D4FEA00614FEA102042BF002010BC0F
:10091000704700EBC35010440029A4BF10BC7047BF
:10092000401C490008BF20F0010010BC704710B502
:10093000141E73F1000408DA401C41F10001921802
:100940005B411A4301D120F0010010BD2DE9F04DAB
:1009500092469B4611B1B1FA81F202E0B0FA80F200
:1009600020329046FFF78BFF04460F4640EA0A000C
:1009700041EA0B0153465A46084313D0114653EA45
:10098000010019D0C8F14002504600F057F8054662
:100990000E46504659464246FFF771FF084305D0C0
:1009A000012004E020463946BDE8F08D00200543D3
:1009B00046EAE0762C4337430A986305E40AA0EB45
:1009C00008000022FD0A44EA47540A3002D50020FC
:1009D0000146E9E7010510196941DDE908450019FB
:1009E0006941BDE8F04DA2E7C1F30A52C1F313011A
:1009F00040F2FF3341F480119A4202DA00200146AE
:100A0000704740F233439A42A2F2334202DC524230
:100A100000F014B8FFF733BF064C074D06E0E0685E
:100A200040F0010394E8070098471034AC42F6D335
:100A3000FFF7C0FB70F0000890F00008202A04DBEC
:100A4000203A21FA02F00021704721FA02F3D04047
:100A5000C2F12002914008431946704770B58C18C6
:100A600010F8015B15F0070301D110F8013B2A11C2
:100A700006D110F8012B03E010F8016B01F8016BAF
:100A80005B1EF9D12B0705D40023521E0DD401F8AB
:100A9000013BFAE710F8013BCB1A921C03E013F874
:100AA000015B01F8015B521EF9D5A142D8D30020A9
:100AB00070BD21B1826842F00102826003E0826869
:100AC00022F00102826070470021084A1168084A3A
:100AD0001140D0E900231A4383681A43C3681A43BC
:100AE0001143044AC2F80413704700000423014074
:100AF000E030FCFF0020014030B50246002000231A
:100B00005068104C20400D790C6844EA05242043BD
:100B1000506090680C4C2040D1E903542C438D6800
:100B20002C434D7944EA450420439060D06A20F478
:100B300070000C7D641EE4B2234340EA0350D0628F
:100B400030BD0000FFFEFFFCFDF7FFC0F0B504461E
:100B50000D4600200021092D11DDE068A5F10A06EF
:100B600006EB4607072606FA07F18843A5F10A06B1
:100B700006EB460603FA06F10843E0600CE0206944
:100B800005EB4507072606FA07F1884305EB4506FE
:100B900003FA06F108432061072A0FDA606B561E3C
:100BA00006EB86071F2606FA07F18843561E06EB5A
:100BB000860605FA06F10843606322E00D2A0FDA83
:100BC000206BD61F06EB86071F2606FA07F188431F
:100BD000D61F06EB860605FA06F10843206310E0EF
:100BE000E06AA2F10D0606EB86071F2606FA07F15A
:100BF0008843A2F10D0606EB860605FA06F10843C6
:100C0000E062F0BD816841F0804181607047000082
:100C100038B10849096841F40001074AC2F80413D1
:100C200006E00449096821F40001034AC2F80413EC
:100C300070470000042301400020014010B52DED55
:100C4000028BB0EE408AB0EE480A09F035FBBDECED
:100C5000028B10BD10B52DED028BB0EE408AF0EE88
:100C6000608AF0EE680AB0EE480A09F0BBFBBDEC02
:100C7000028B10BD10B52DED028BB0EE408AB0EEA8
:100C8000480AFFF715FBBDEC028B10BDF0EE400AE1
:100C9000F5EEC00AF1EE10FA02DDB0EE600A704720
:100CA000B1EE600AFBE7000018B19FED020A80ED8B
:100CB000000A7047000000007047000070B52DED7D
:100CC0000C8B84B006460C4615469FED990AF0EE53
:100CD000408A9FED970AB0EE409A9FED950AF0EE9C
:100CE00040BA9FED930AF0EE409A9FED910AB0EE64
:100CF00040AA0EB104B11DB904B0BDEC0C8B70BD9F
:100D00008C48FFF7D1FF8C48FFF7D6FF8A48D0ED1B
:100D1000000A9FED8A1A60EE810AB0EE600A00F0C8
:100D200039F9F0EE408A28EEA80AF0EE408A8248AF
:100D3000D0ED000AB0EE001A60EE810A9FED7F1A36
:100D400060EE810AB0EE600A00F024F9B0EE409A3D
:100D500029EE090AB0EE409ADFED790AB7EE000AF3
:100D600000EEA80ADFED770A00EEC90ADFED760A89
:100D700020EE200A754880ED000A6E4890ED000ACA
:100D8000DFED730A80EE201AB7EE000A31EE000A9A
:100D900020EE000A6D48D0ED000A80EE801A6D4802
:100DA00080ED001A94ED000AB5EEC00AF1EE10FADB
:100DB0000DD194ED010AB5EEC00AF1EE10FA06D19C
:100DC00094ED020AB5EEC00AF1EE10FA46D09FED9E
:100DD000580AB0EE408A0020019002900390D4EDB2
:100DE000000A60EEA00A94ED011AD4ED011A41EE5A
:100DF000210A94ED021AD4ED021A41EE210AB0EE56
:100E0000600A00F0A9F8B0EE408A94ED000A20EEE6
:100E1000080A8DED010A94ED010A20EE080A8DED15
:100E2000020A94ED020A20EE080A8DED030ADDEDB8
:100E3000010AF1EE600AB0EE600AFFF7FFFEF0EE85
:100E4000409A9DED031AF0EE410A9DED021AB0EEB4
:100E5000410AFFF7FFFEB0EE40AA07E09FED340A1B
:100E6000F0EE409A9FED320AB0EE40AA95ED000AEE
:100E7000B5EEC00AF1EE10FA0DD195ED010AB5EE0E
:100E8000C00AF1EE10FA06D195ED020AB5EEC00ADD
:100E9000F1EE10FA3CD0B0EE690A00F07BF8B0EE4B
:100EA000408AB0EE690AFFF7E5FEB0EE40DAB0EE38
:100EB0004A0A00F06FF8F0EE40AAB0EE4A0AFFF7D7
:100EC000D9FEB0EE40BA28EE2A0AD5ED010A20EE8E
:100ED000200AD5ED000A0DEE200A68EE0B0A95ED0A
:100EE000021A00EE810AB0EE40CA95ED010A20EE2A
:100EF0000B0AD5ED020A0AEEE00AF0EE40CAF0EE67
:100F00006C0AB0EE4C0AFFF7A5FEF0EE40BA03E023
:100F10009FED070AF0EE40BAB0EE4A1AF0EE690A09
:100F2000B0EE6B0A30460AF0E7F900BFE4E60000D5
:100F300000000000440400204804002035FA8E3CE4
:100F4000C1BFAD3B9DF8C5362F7C1C414C04002031
:100F5000506CC24A50040020F0EE400AF6EE001A2F
:100F600060EEA11AB0EE611AB0EE600A10EE100A3F
:100F70000749A1EB600000EE100A21EE002AF7EE0F
:100F8000081A42EE401A61EE801AB0EE610A70470C
:100F9000DF59375F10B52DED028BB0EE408AB0EE11
:100FA000480AFFF7C1F9BDEC028B10BD2DE9F041F5
:100FB0002DED028B9AB00546B0EE408A0E461746DC
:100FC000984600201790189019901490159016903C
:100FD0004DB146B13FB1B8F1000F04D0B5EEC08AB3
:100FE000F1EE10FA05D100201AB0BDEC028BBDE87D
:100FF000F08196ED000A8DED170A96ED010A8DED50
:10100000180A96ED020A8DED190A97ED000A8DED8A
:10101000140A97ED010A8DED150A97ED020A8DED80
:10102000160A17AA14A9284609F0B8FF402104A8F7
:10103000FFF7CDF90020009001900290039000246A
:1010400017A904A80BF0E8FE00BF30E004A800EBED
:10105000041090ED000AD5ED000A20EE200A04A845
:1010600000EB0410D0ED010A95ED011A00EE810AA3
:1010700004A800EB0410D0ED020A95ED021A00EE70
:10108000810A04A800EB0410D0ED030A95ED031AC1
:1010900000EE810A20EE080AF0EE000A80EE201A27
:1010A000684600EB840080ED001A601CC4B2042C7A
:1010B000CCDB002410E005EB840090ED000A6846CC
:1010C00000EB8400D0ED000A30EE200A05EB84002E
:1010D00080ED000A601CC4B2042CECDB28460BF047
:1010E0008FFD012080E710B506F080FB04F03CFF87
:1010F00010BDF0EE400AF5EEC00AF1EE10FA02DB88
:10110000B0EE600A7047F5EEC00AF1EE10FA02D2B6
:10111000B1EE600AF6E7B0EE600AF3E790ED001A70
:10112000B4EEC01AF1EE10FA02DD80ED000A08E01C
:1011300090ED001AB4EEE01AF1EE10FA01D2C0ED13
:10114000000A704710B52DED068BB0EE408A18EE00
:10115000100AFFF7EDFA41EC190B9FED1F0B53EC52
:10116000102BFFF711FB12D818EE100AFFF7E0FA68
:1011700041EC1A0B9FED1A0B53EC102BFFF7D3F930
:1011800041EC190BFFF718FB08EE100A1EE018EEF1
:10119000100AFFF7CDFA41EC190B9FED130B53EC3E
:1011A000102BFFF7D9FA11D818EE100AFFF7C0FA82
:1011B00041EC1A0B9FED0A0B53EC102BFFF712F9C1
:1011C00041EC190BFFF7F8FA08EE100AB0EE480AE6
:1011D000BDEC068B10BD00004AD8124DFB21094022
:1011E0004AD8124DFB2119404AD8124DFB2109C0A3
:1011F000B0EE401A71EE601AB0EE610ADFED0D1A22
:10120000B4EEE10AF1EE10FA06DDDFED0B1A70EE36
:10121000611AB0EE610A0CE0DFED081AB4EEE10AE3
:10122000F1EE10FA05D2DFED041A70EE211AB0EEDD
:10123000610A7047DA0F4940DA0FC940DA0F49C036
:1012400000BFFEE72DE9F04186B004460D46164684
:101250001F46DDF8308000208DF80D008DF80C0061
:1012600008208DF80E0001948DF80F508DF8106055
:101270008DF811708DF8128000218DF813108DF803
:1012800014108DF815108DF8161001A9024800F001
:101290000EFC06B0BDE8F0810064004000B58BB0E4
:1012A0000121082004F0AEFE0121480604F0CAFE28
:1012B0000121480604F0D6FE00214FF0007004F032
:1012C000D1FE0320099002208DF8280000208DF81F
:1012D0002A0003208DF8290001208DF82B0009A990
:1012E0002D4802F089FD092200212B4802F0CCFD97
:1012F00009220121284802F0C7FD00208DF81E00B8
:1013000001208DF81F0000208DF820008DF82100AD
:101310008DF822008DF823008DF81A008DF81B003F
:1013200005208DF81C0001208DF81D000520ADF86A
:10133000180006A9194800F0B8FA00208DF812002C
:101340008DF8130001208DF814000020ADF808007E
:10135000ADF80A00ADF80C00ADF80E00ADF81000C5
:1013600001208DF8150002A800F082F90122022167
:101370000A4800F091FA14208DF8040001208DF83D
:10138000050000208DF8060001208DF8070001A857
:1013900004F0F0FB0BB000BD000C02400064004004
:1013A0002DE9F04186B007460C4615461E46DDF88D
:1013B000308000208DF80D008DF80C0008208DF88D
:1013C0000E000197200A8DF80F008DF81040290AB1
:1013D0008DF811108DF81250310A8DF813108DF818
:1013E00014604FEA18218DF815108DF8168001A9A8
:1013F000024800F05CFB06B0BDE8F08100640040EC
:1014000000B585B00221094800F0B6F958B10221B3
:10141000064800F0D9F86A460021044800F0CFFAE7
:10142000684600F0D7FB05B000BD00000064004036
:1014300000B58BB00121022004F0E4FD01218806F3
:1014400004F000FE0121880604F00CFE00214FF09C
:10145000806004F007FE4FF44050099002208DF8A0
:10146000280000208DF82A0003208DF82900012093
:101470008DF82B0009A92E4802F0BEFC09220C2190
:101480002B4802F001FD09220D21294802F0FCFC45
:1014900000208DF81E0001208DF81F0000208DF81F
:1014A00020008DF821008DF822008DF823008DF8A2
:1014B0001A008DF81B0005208DF81C0001208DF806
:1014C0001D000520ADF8180006A91A4800F0EDF936
:1014D0000E208DF8120000208DF8130001208DF8E9
:1014E00014000020ADF80800ADF80A00ADF80C00BB
:1014F000ADF80E00ADF8100001208DF8150002A81F
:1015000000F0B6F8012202210A4800F0C5F9402097
:101510008DF8040001208DF8050000208DF80600EC
:1015200001208DF8070001A804F024FB0BB000BDDA
:1015300000040240006800402DE9F04186B00746F3
:101540000C4615461E46DDF8308000208DF80D0053
:101550008DF80C0008208DF80E000197200A8DF8F8
:101560000F008DF81040290A8DF811108DF81250D7
:10157000310A8DF813108DF814604FEA18218DF898
:1015800015108DF8168001A9024800F090FA06B0F7
:10159000BDE8F0810068004000B585B0022109482F
:1015A00000F0EAF858B10221064800F00DF86A464A
:1015B0000021044800F003FA684600F04DFC05B035
:1015C00000BD000000680040B1F5007F3AD00FDC9C
:1015D000202928D006DC01291CD004291DD0082987
:1015E00040D11DE0402921D0B1F5807F3AD126E0DD
:1015F000B1F5004F31D006DCB1F5806F25D0B1F5E3
:10160000006F2FD124E0B1F5803F12D0B1F5003F3B
:1016100028D111E0154A826025E00822C26022E04C
:101620001022C2601FE0082202611CE01022026149
:1016300019E00822426016E01022426013E0042202
:10164000426010E0042242600DE0042242600AE0A1
:10165000002282610422426005E0002282610422AD
:10166000426000E000BF00BF7047000001010100C0
:1016700010B50021837A012202FA03F13D4A126873
:1016800042F001023B4B1A603A4A1C3212688A430C
:10169000384B1C331A60027BCAB9364A0C321268C6
:1016A0008A43344B0C331A604288C38842EA0343AE
:1016B000304A4032847A42F834300288838842EAE1
:1016C00003432C4A4032847A02EBC4025360027B0B
:1016D000012A19D1274A0C3212680A43254B0C33D0
:1016E0001A604288038842EA0343224A4032847ADD
:1016F00042F83430C288838842EA03431D4A4032AC
:10170000847A02EBC4025360C27A3AB9194A121DB4
:1017100012688A43174B1B1D1A6006E0154A121DFA
:1017200012680A43134B1B1D1A60028932B9114A11
:10173000143212688A430F4B14331A600289012A4B
:1017400006D10C4A143212680A430A4B14331A6049
:10175000427B012A06D1074A1C3212680A43054B14
:101760001C331A60034A126822F00102014B1A600E
:1017700010BD00000066004070B504460D4600260E
:1017800060692840002871D0B5F5807F5CD010DCFE
:10179000082D35D006DC012D20D0022D24D0042DBB
:1017A00072D127E0102D31D0202D35D0402D6BD1B6
:1017B00038E0B5F5004F60D009DCB5F5007F49D0C1
:1017C000B5F5806F4CD0B5F5006F5DD14FE0B5F544
:1017D000803F2DD0B5F5003F56D12FE0A0682D49B0
:1017E00001F080FB064651E0E068032101F07AFB3E
:1017F00006464BE0E068082101F074FB064645E030
:10180000E068102101F06EFB06463FE020690321ED
:1018100001F068FB064639E02069082101F062FB0F
:10182000064633E02069102101F05CFB06462DE0FE
:101830006068082101F056FB064627E06068102129
:1018400001F050FB064621E0A069012101F04AFBAE
:1018500006461BE0A069022101F044FB064615E0A4
:10186000A069042101F03EFB06460FE00FE0A069ED
:10187000702101F037FB064608E06068042101F0A2
:1018800031FB064602E0FFE7002600BF00E000262D
:10189000304670BD010101001AB143690B43436139
:1018A00002E043698B434361704730B50246002034
:1018B0000023146824F002041460146844F0010446
:1018C000146000E05B1C546804F001041CB94FF67E
:1018D000FF74A342F6D1546804F001040CB900204F
:1018E0006CE08C79012C04D1146844F080041460FD
:1018F00003E0146824F080041460CC79012C04D136
:10190000146844F04004146003E0146824F04004B8
:1019100014600C7A012C04D1146844F02004146083
:1019200003E0146824F0200414604C7A012C04D1E4
:10193000146844F01004146003E0146824F01004E8
:1019400014608C7A012C04D1146844F008041460EB
:1019500003E0146824F008041460CC7A012C04D14C
:10196000146844F00404146003E0146824F00404D0
:1019700014608C78A407CD7844EA05640D7944EAB4
:1019800005444D7944EA05540D886D1E2C43D461FD
:10199000146824F001041460002300E05B1C546808
:1019A00004F001041CB14FF6FF74A342F6D1546851
:1019B00004F001040CB1002000E0012030BD10B59E
:1019C00000F5D87303EB01131B6803F004031372D3
:1019D000137A53B900F5D87303EB01131B6840F277
:1019E000FF7404EA5353136009E000F5D87303EB66
:1019F00001131B686FF0604404EAD303536000F5E1
:101A0000D87303EB01131B6803F00203537200F554
:101A1000D87303EB01135B6803F00F03937200F5B7
:101A2000D87303EB01135B681B0AD37400F5D873FA
:101A300003EB01139B68D37200F5D87303EB01131A
:101A40009B681C0A147300F5D87303EB01139B68A1
:101A50001C0C547300F5D87303EB01139B681B0E29
:101A6000937300F5D87303EB0113DB68D37300F5B0
:101A7000D87303EB0113DB681C0A147400F5D873E8
:101A800003EB0113DB681C0C547400F5D87303EBF3
:101A90000113DB681B0E937421B9C36843F0200364
:101AA000C36003E0036943F02003036110BD10B578
:101AB00002460020936803F08063B3F1806F00D189
:101AC00010E0936803F00063B3F1006F01D10120CF
:101AD00008E0936803F08053B3F1805F01D10220E6
:101AE00000E00420042874D002F5C07303EB001357
:101AF0001B6803F0010402F5C07303EB00131C60C4
:101B00000B7A7BB94B7A0C8843EA445302F5C074D4
:101B100004EB00142468234302F5C07404EB0014A2
:101B2000236010E00B7A4C6843EAC4034C7A2343E9
:101B300002F5C07404EB00142468234302F5C0745A
:101B400004EB001423608B7A03F00F038B7202F511
:101B5000C07303EB00135B6823F00F0402F5C0733E
:101B600003EB00135C6002F5C07303EB00135B68CA
:101B70008C7A234302F5C07404EB001463608B7B02
:101B80001C064B7B44EA03440B7B44EA0323CC7AD8
:101B9000234302F5C07404EB0014A3608B7C1C0685
:101BA0004B7C44EA03440B7C44EA0323CC7B234371
:101BB00002F5C07404EB0014E36002F5C07303EB9C
:101BC00000131B6843F0010402F5C07303EB00131C
:101BD0001C6010BD10B504462068B0F5017F5ED0D2
:101BE00012DC40F20122A0EB0201904215D006DC8B
:101BF00020287DD021287CD0302823D1F2E0012973
:101C000021D00229F9D134E0A0F20520062819D20A
:101C1000DFE800F05B748AA0B6CF207BE17A00EBAE
:101C2000012000B289490880A17B607B01EB002084
:101C300000B286494880217CE07B01EB002000B2A5
:101C400082498880FFE0207BE17A00EB012000B22E
:101C50007E490881A17B607B01EB002001B27B48BB
:101C60004181217CE07B01EB002001B2774881813A
:101C7000E9E0207BE17A00EB012000B273490882A1
:101C8000A17B607B01EB002001B270484182217C86
:101C9000E07B01EB002001B26C488182D3E0207B25
:101CA000E17A00EB012000B268490883A17B607BE8
:101CB00001EB002001B265484183217CE07B01EB10
:101CC000002001B261488183BDE0207BE17A00EB16
:101CD000012000B25D490884A17B607B01EB0020FC
:101CE00001B25A484184217CE07B01EB002001E0F5
:101CF00091E09CE001B255488184A4E0207BE17A28
:101D000000EB012000B251490885A17B607B01EB0B
:101D1000002001B24D484185217CE07B01EB002091
:101D200001B24A4881858EE0207BE17A00EB0120F8
:101D300000B246490886A17B607B01EB002001B21E
:101D400042484186217CE07B01EB002001B23F4804
:101D5000818678E0207BE17A00EB012000B23B49EC
:101D60000887A17B607B01EB002001B237484187E7
:101D7000217CE07B01EB002001B23448818762E0E6
:101D8000207BE17A00EB012000B23049A1F880000D
:101D9000A17B607B01EB002001B22C48A0F88210EF
:101DA000217CE07B01EB002001B22848A0F88410E0
:101DB00049E0207BE17A00EB012000B22349A1F841
:101DC0008800A17B607B01EB002001B21F48A0F8D6
:101DD0008A10217CE07B01EB002001B21B48A0F8B7
:101DE0008C1030E0207BE17A00EB012000B2184932
:101DF0004880A17B607B01EB002000B21449088081
:101E0000217CE07B01EB0020114988800CF064F913
:101E10000F49886017E00F48D4F80B108160D4F8A0
:101E20000F10C1600CF058F90A4908610BE009482D
:101E3000D4F80B100160D4F80F1041600CF04CF98D
:101E40000449086100BF00BF10BD00005804002015
:101E5000F8040020040500200168A1F201210829EE
:101E60001DD2DFE801F0041D364F68819AB3017B73
:101E7000C27A01EB022109B2624AA2F84010827BC9
:101E8000417B02EB01210AB25E49A1F84220027CAB
:101E9000C17B02EB01210AB25A49A1F84420AEE00D
:101EA000017BC27A01EB022109B2564AA2F848101E
:101EB000827B417B02EB01210AB25249A1F84A2000
:101EC000027CC17B02EB01210AB24E49A1F84C20F1
:101ED00095E0017BC27A01EB022109B2494AA2F8DE
:101EE0005010827B417B02EB01210AB24549A1F8E7
:101EF0005220027CC17B02EB01210AB24149A1F8C8
:101F000054207CE0017BC27A01EB022109B23D4AF8
:101F1000A2F85810827B417B02EB01210AB23949B9
:101F2000A1F85A20027CC17B02EB01210AB235499B
:101F3000A1F85C2063E0017BC27A01EB022109B2C7
:101F4000304AA2F86010827B417B02EB01210AB289
:101F50002C49A1F86220027CC17B02EB01210AB26C
:101F60002849A1F864204AE0017BC27A01EB0221F2
:101F700009B2244AA2F86810827B417B02EB01215E
:101F80000AB22049A1F86A20027CC17B02EB012140
:101F90000AB21C49A1F86C2031E0017BC27A01EB46
:101FA000022109B2174AA2F87010827B417B02EB32
:101FB00001210AB21349A1F87220027CC17B02EB15
:101FC00001210AB20F49A1F8742018E0017BC27AFE
:101FD00001EB022109B20B4AA2F87810827B417B07
:101FE00002EB01210AB20749A1F87A20027CC17BE9
:101FF00002EB01210AB20349A1F87C2000BF00BF17
:10200000704700005804002010B5044620780828C6
:102010001DD2DFE800F0041C080C1C141810204628
:1020200000F0B2FC13E0204600F044FA0FE0204636
:1020300000F00EF90BE0204600F07EFB07E02046A2
:1020400000F07AFB03E0204600F076FB00BF00BF03
:1020500094EDA70AD4EDA80A30EE600AD4EDA90ADF
:1020600030EE600A84EDAC0A94EDA70AD4EDA80A1C
:1020700030EE200AD4EDA90A30EE600A84EDAD0AF4
:1020800094EDA70AB1EE400AD4EDA80A30EE200A7A
:10209000D4EDA90A30EE600A84EDAE0A94EDA70AE9
:1020A000B1EE400AD4EDA80A30EE600AD4EDA90AD8
:1020B00030EE600A84EDAF0A00201FE004F52C71B9
:1020C00001EB800191ED000AF1EE080AB4EEE00A9E
:1020D000F1EE10FA11DD04F52C7101EB800191EDA8
:1020E000000A20EE000AF1EE080A80EE201A04F53C
:1020F0002C7101EB800181ED001A401C0428DDDB0E
:1021000010BD0246002002E022F81010401C0428F6
:10211000FADB704700B50246002305E0111D01EB14
:10212000C30000F041FC5B1C042BF7DB506A90ED10
:10213000020A82EDB00A506A8089A2F8C402506A8D
:10214000C088A2F8C60200BD10B504460020207069
:102150000223002242F210719FED3B1ADFED3A0A92
:102160009FED3A0A04F1280009F0D8FE022300226C
:1021700042F210719FED341ADFED330A9FED330AFE
:1021800004F1A00009F0CAFE0223002242F21071FD
:102190009FED2D1ADFED2C0A9FED2C0A04F58C70B3
:1021A00009F0BCFE0223002242F210719FED261AB4
:1021B000DFED250A9FED250A04F5C87009F0AEFE93
:1021C000022300220A21B3EE041ADFED1F0AB2EE49
:1021D000090A04F5027009F0A1FE40F20121002075
:1021E00001F08CFE606040F20221002001F086FECA
:1021F000E06040F20321002001F080FE60614FF4B6
:102200000171002001F07AFEE06101F0F9FE6062E8
:10221000002008E09FED0C0A04F52C7101EB800111
:1022200081ED000A401C0428F4DB02F06BFFC4F8C7
:10223000A80201F0B9FEC4F88802002104F532704A
:10224000FFF75FFF10BD0000000000000000164512
:1022500010B50446D4F88802007D00F01000002874
:102260004AD000208C4908608C4908608C4908607D
:10227000D4F88802007D00F0010020B18748006892
:102280000A3086490860D4F88802007D00F0020018
:1022900020B1824800680A3880490860D4F8880272
:1022A000007D00F0040020B17B4800680A387A49BC
:1022B0000860D4F88802007D00F0080020B176485C
:1022C00000680A3074490860D4F88802007D00F084
:1022D000800020B1724800680A3871490860D4F85B
:1022E0008802007D00F0400000284ED06C48006855
:1022F0000A306B49086048E0002067490860674978
:10230000086067490860D4F88802007D00F0010089
:1023100020B162480068001D60490860D4F8880256
:10232000007D00F0020020B15C480068001F5B499E
:102330000860D4F88802007D00F0040020B15648FF
:102340000068001F54490860D4F88802007D00F03E
:10235000080020B150480068001D4F490860D4F8BB
:102360008802007D00F0800020B14D480068001F09
:102370004B490860D4F88802007D00F0400020B18D
:1023800047480068001D4649086004F5227420682B
:10239000B0F9000000EE100AB8EEC00A9FED411A35
:1023A000C0EE010A3C4890ED000AB8EEC00AB2EE59
:1023B000041A00EE810ABDEEC00A80ED000A206812
:1023C000B0F9020000EE100AB8EEC00A9FED351A0F
:1023D000C0EE010A314890ED000AB8EEC00AB2EE34
:1023E000041A00EE810ABDEEC00A80ED000A206AE0
:1023F000D0ED000AF1EE600AB0EE600AFDF794FF3E
:10240000294880ED000A206AD0ED000AF1EE600A4A
:10241000B0EE600AFDF74CFF244880ED000AD0EDD5
:10242000000A1D4890ED000AB8EEC00A20EE800AAE
:102430001D4890ED001A1948D0ED000AF8EEE00AA8
:1024400001EE200A84ED050A174890ED000AF1EE2E
:10245000400A114890ED000AB8EEC00A20EE800A4A
:10246000124890ED001A0D48D0ED000AF8EEE00A8F
:1024700001EE200A84ED060A206AA4F52274D0ED4C
:10248000000AB0EE600ADFED0A0A04F5027009F0F6
:1024900043FC84EDA90A10BD8402002088020020BC
:1024A0008C020020000025447002002074020020ED
:1024B00000000000D0F88812097D01F01001002909
:1024C0004AD000216C4A11606C4A11606C4A11605C
:1024D000D0F88812097D01F0010121B1674909682E
:1024E0000A31664A1160D0F88812097D01F00201B4
:1024F00021B1624909680A39604A1160D0F888122E
:10250000097D01F0040121B15B4909680A395A4A81
:102510001160D0F88812097D01F0080121B15649F7
:1025200009680A31544A1160D0F88812097D01F017
:10253000800121B1524909680A39514A1160D0F825
:102540008812097D01F0400100294ED04C490968EC
:102550000A314B4A116048E00021474A1160474A5E
:102560001160474A1160D0F88812097D01F001011D
:1025700021B142490968091D404A1160D0F888120A
:10258000097D01F0020121B13C490968091F3B4A5C
:102590001160D0F88812097D01F0040121B136499B
:1025A0000968091F344A1160D0F88812097D01F0CA
:1025B000080121B130490968091D2F4A1160D0F87E
:1025C0008812097D01F0800121B12D490968091F98
:1025D0002B4A1160D0F88812097D01F0400121B129
:1025E00027490968091D264A1160D0F88812B1F9F7
:1025F000001000EE101AB8EEC00A9FED221AC0EECD
:10260000010A1D4991ED000AB8EEC00AB2EE041AA3
:1026100000EE810A80EDA70AD0F88812B1F9021005
:1026200000EE101AB8EEC00A9FED161AC0EE010AAD
:10263000124991ED000AB8EEC00AB2EE041A00EE9B
:10264000810A80EDA80AD0F88812B1F9081000EECE
:10265000101AB8EEC00A9FED0B1AC0EE010A084925
:1026600091ED000AB8EEC00AB2EE041A00EE810A3B
:1026700080EDA90A70470000780200207C0200204B
:102680008002002000002544D0F88812C97A02296F
:1026900002D1002101703FE0D0F88812C97A0329E5
:1026A00002D10221017037E0D0F88812C97A0129DD
:1026B00032D11F490968032901D101702CE01D495D
:1026C000097801F0800189B9D0F88812097D01F0FC
:1026D000800159B10178052902D00178062902D17B
:1026E0000321017018E00521017015E011490978F6
:1026F00001F0400181B9D0F88812097D01F0400154
:1027000051B10178052902D00178062902D10321AF
:10271000017001E006210170D0F88812898A054A0B
:102720001160D0F88812C97A014A11607047000020
:102730009C0200209802002010B52DED048B044669
:10274000D4F88802B0F9000000EE100AB8EEC00A12
:10275000DFED880A80EE201AB2EE040A21EE000AAC
:10276000B0EE408AD4F88802B0F9020000EE100AF8
:10277000F8EEC00A9FED7F1A80EE810AF2EE040A9D
:1027800020EE200AF0EE408AD4F88802B0F9080062
:1027900000EE100AF8EEC00A9FED761A80EE810A6C
:1027A000F2EE040A20EE200AB0EE409A9FED720A83
:1027B00084EDA70A9FED700A84EDA80A9FED6E0ACA
:1027C00084EDA90AD4F88802007D00F01000E8B377
:1027D0009FED690A84EDA70A9FED670A84EDA80AB8
:1027E0009FED650A84EDA90AD4F88802007D00F007
:1027F000010028B1B2EE040A38EE800AF0EE408AF9
:10280000D4F88802007D00F0020028B1B2EE040A7C
:1028100038EEC00AF0EE408AD4F88802007D00F05D
:10282000040028B1B2EE040A38EE400AB0EE408A45
:10283000D4F88802007D00F0080028B1B2EE040A46
:1028400038EE000AB0EE408A207800E00EE006285C
:1028500004D1B2EE040AB0EE409A52E02078052886
:102860004FD1BAEE040AB0EE409A4AE09FED420A18
:1028700084EDA70A9FED400A84EDA80A9FED3E0A69
:1028800084EDA90AD4F88802007D00F0010028B187
:10289000B1EE000A38EE800AF0EE408AD4F88802E1
:1028A000007D00F0020028B1B1EE000A38EEC00A47
:1028B000F0EE408AD4F88802007D00F0040028B1D0
:1028C000B1EE000A38EE400AB0EE408AD4F8880231
:1028D000007D00F0080028B1B1EE000A38EE000AD1
:1028E000B0EE408A2078062804D1B1EE000AB0EE9E
:1028F000409A06E02078052803D1B9EE000AB0EE30
:10290000409AD4F8A802D0ED000AB0EE600AFDF7B4
:102910000BFD1A4880ED000AD4F8A802D0ED000A99
:10292000B0EE600AFDF7C4FC154880ED000A90ED9A
:10293000000A20EE080A1148D0ED000A00EEA80AAD
:1029400084EDA70A90ED000AB1EE400A20EE080AD5
:102950000B48D0ED000A00EEA80A84EDA80A84ED29
:10296000A99AD4F88802808A06490860BDEC048BD5
:1029700010BD00000000254400000000700200208F
:1029800074020020900200209FED060A80EDA70A45
:102990009FED040A80EDA80A9FED020A80EDA90AC6
:1029A00070470000000000000168B1F9021000EE5D
:1029B000101AB8EEC00ADFED030A20EE200A80EDFF
:1029C000010A70471792A63A10B50446207880B9DC
:1029D0009FED240A84EDB20A9FED220A84EDB30A2A
:1029E0009FED200A84EDB40A9FED1E0A84EDB50A1E
:1029F00037E094EDAC1AF0EE410A94ED021AB0EE15
:102A0000410A04F1280000F06BF984EDB20A94ED5C
:102A1000AD1AF0EE410A94ED041AB0EE410A04F149
:102A2000A00000F05DF984EDB30A94EDAE1AF0EE6B
:102A3000410A94ED061AB0EE410A04F58C7000F0DC
:102A40004FF984EDB40A94EDAF1AF0EE410A94ED1B
:102A5000081AB0EE410A04F5C87000F041F984ED9F
:102A6000B50A10BD0000000070B52DED0C8B0446BA
:102A700002F0D6FF00287BD09FED660AB0EE408AB8
:102A80009FED640AF0EE408AB4F8C4023C2801DAF3
:102A9000322500E0BE25B4F8C60200EE100AB8EEFA
:102AA000400AF0EE000A80EE209AB4F8C402A84270
:102AB0001CDAB4F8C40200EE900AF8EE600AB1EE37
:102AC000041AF4EEC10AF1EE10FA06DDB4F8C402FD
:102AD00000EE900AB8EE600A01E0B1EE040ADFED04
:102AE0004E0A60EE200AB0EE608A3BE094EDB00A38
:102AF000B4EEC90AF1EE10FA27DD94EDB01AB4F87D
:102B0000C60200EE900AF8EE600AB4EEE01AF1EEAA
:102B100010FA0AD2B4F8C60200EE900AF8EE600A83
:102B200094EDB01A30EEC10A01E09FED3A0A05EBD0
:102B30008500800100EE900AF8EEE00A9FED371A5A
:102B4000B0EE608A01EE008A0CE005EB85008001A2
:102B500000EE100AB8EEC00ADFED300AB0EE408A8F
:102B600000EE898A9FED2B0AF0EE408A002629E0CC
:102B70004DE004F5327000EB860090ED000A10EE97
:102B8000101A0846FDF7D4FD41EC1D0BB0EE4D0ABE
:102B9000F0EE6D0A07F07CFDB0EE40BAF0EE60BAE0
:102BA00018EE900AFDF7C4FD41EC1C0B53EC1B2BF7
:102BB000FDF718FC41EC1A0BFDF7FEFD08EE900A3C
:102BC000701CC6B2042ED4DBF4EEC88AF1EE10FA03
:102BD0001CDDC8EE280AB0EE600AD4EDB20A60EE41
:102BE000800AC4EDB20AD4EDB30A60EE800AC4EDE7
:102BF000B30AD4EDB40A60EE800AC4EDB40AD4ED91
:102C0000B50A60EE800AC4EDB50A00BF00BFBDEC96
:102C10000C8B70BD000000000000A0430000FA43D0
:102C200008B564200AF0F6FB2948FFF78DFA002466
:102C300012E0C4EB0411274A02EBC100022341F267
:102C4000883242F228319FED241ADFED230A9FEDEE
:102C5000230A09F063F9641C042CEADB36E01C4803
:102C6000FFF712FD1A48FFF755FA1948FFF7CCF99C
:102C70001748FFF7A9FE1648FFF7F6FE144890ED37
:102C8000B50ABDEEC00A10EE100A80B200901048DE
:102C900090EDB40ABDEEC00A10EE100A83B20C48E3
:102CA00090EDB30ABDEEC00A10EE100A82B20848D9
:102CB00090EDB20ABDEEC00A10EE100A81B24FF4D8
:102CC0000070FEF76DFB01200AF0A4FBC7E70000CF
:102CD000D81D0220E020022000000000CDCC0C41D5
:102CE00010B52DED0A8B0446B0EE408AF0EE608AF6
:102CF00084ED0D8AC4ED0C8A94ED0C0AD4ED0D0A16
:102D000030EE600A84ED080AE06B012866D194ED8C
:102D1000000AD4ED080A20EE200A10EE101A084628
:102D2000FDF706FDC4E9040194ED010AD4ED0B0A98
:102D300020EE200A84ED060A94ED080AD4ED090A73
:102D400030EE600AD4ED020A20EE200A84ED070A74
:102D500094ED0B0AD4ED080A30EE200A84ED0B0A3C
:102D60009FED5F0A04F12C0003F0A8F8D4ED110ADE
:102D7000B0EE600A04F1180003F0A0F894ED070A21
:102D800010EE101A0846FDF7D3FC41EC1A0B94ED37
:102D9000060A10EE101A0846FDF7CAFC41EC1C0B9F
:102DA00094ED041BB0EE410AF0EE610A53EC102BD7
:102DB000FDF718FB41EC1B0B53EC1A2BFDF712FB34
:102DC00041EC190BFDF7F8FCA063D4ED100AB0EE4E
:102DD000600A04F1380003F071F874E0E06B022837
:102DE00071D194ED080AD4ED090A30EE600AD4EDF1
:102DF000000A20EE200A10EE101A0846FDF798FC93
:102E0000C4E9040194ED010AD4ED080A20EE200A79
:102E100084ED060A94ED080AD4ED090AB0EE001A12
:102E200001EE600AD4ED0A0A30EE200AD4ED020A5F
:102E300020EE200A84ED070AD4ED110AB0EE600AF4
:102E400004F1180003F03AF894ED070A10EE101A96
:102E50000846FDF76DFC41EC1A0B94ED060A10EEE6
:102E6000101A0846FDF764FC41EC1C0B94ED041BA2
:102E7000B0EE410AF0EE610A53EC102BFDF7B2FA06
:102E800041EC1B0B53EC1A2BFDF7ACFA41EC190B80
:102E9000FDF792FCA06494ED140AD4ED120A30EE12
:102EA000200A84ED130A94ED130A84ED0E0AD4ED82
:102EB000100AB0EE600A04F1380002F0FFFF94ED52
:102EC000130A84ED140A94ED090A84ED0A0A94EDBC
:102ED000080A84ED090A94ED0E0ABDEC0A8B10BDB8
:102EE00000401C460246002002EA01030BB101200B
:102EF00000E00020704700002DE9F84F07460C461F
:102F000090464FF00009CA4600250026A346A01DA2
:102F100000900425A7F1500010283AD2DFE800F015
:102F20001608190F1E2326292C2F32393939393525
:102F30004FF0340903254FF0400A01262BE04FF0F3
:102F40003D0903254FF02E0A012624E04FF03009F9
:102F500021E04FF037094FF003081CE04FF03A0929
:102F60004FF0030817E04FF0410914E04FF0450916
:102F700011E04FF049090EE04FF04D090BE04FF022
:102F8000510908E04FF0550905E01448D0F80090C9
:102F900001E0BDE8F88F00BFB8F1030F01D10325B0
:102FA00000265DB16A000E4901EB49005946FDF764
:102FB000F5F9294648460B4A126890475EB17200FF
:102FC000074901EB4A000099FDF7E8F93146504600
:102FD000044A1268904700BFDBE70000C8020020E7
:102FE000C0230220B402002070B506460C4604F04F
:102FF0008000802808D104F07F0000EB800106F5F6
:103000008E7000EBC10507E004F07F0000EB80014B
:1030100006F55D7000EBC10504F07F00287004F038
:103020008000C00968702946304606F05EFA00202C
:1030300070BD70B506460C4604F08000802808D1AB
:1030400004F07F0000EB800106F58E7000EBC105F7
:1030500005E004EB840106F55D7000EBC10500207E
:10306000A87004F07F002870C4F3C010687029466F
:10307000304606F012FA002070BD2DE9F0410646F8
:103080000D4690461F4605F08000802808D105F0C7
:103090007F0000EB800106F58E7000EBC10407E0B5
:1030A00005F07F0000EB800106F55D7000EBC104C8
:1030B00005F07F00207005F08000C0096070C4F842
:1030C0000880E770607808B12078E080022F01D195
:1030D000002020712146304606F093F90020BDE81B
:1030E000F0812DE9F04105460E461746984606F058
:1030F0007F0000EB800105F55D7000EBC104E76027
:10310000C4F814800020A061607006F07F00207079
:10311000E878012800D12761207820B92146284687
:1031200006F093F803E02146284606F05DFA0020F9
:10313000BDE8F08108B500220092009A61F30A12FE
:10314000009202691268009B1A4303691A6008BD65
:1031500070B506460C4604F08000802808D104F0C3
:103160007F0000EB800106F58E7000EBC10505E0E5
:1031700004EB840106F55D7000EBC1050120A87029
:1031800004F07F002870C4F3C010687029463046F0
:1031900006F0F8F9002070BD2DE9F04107460D4614
:1031A0001646984605F07F0000EB800107F58E700B
:1031B00000EBC1040120607005F07F002070E66024
:1031C00026610020A061C4F81480207820B921462F
:1031D000384606F03AF803E02146384606F004FA8D
:1031E0000020BDE8F081000030B587B00546594C9D
:1031F000284605F0F0FF01A802F064FF029CE86891
:10320000C0680590059820F4705005900598E9680D
:10321000C860284606F0B0FB03280BD10020A87038
:103220004FF40070A880059820F4705000F51050FD
:1032300005907EE00120A8704020A8804648844286
:1032400009D34648844206D2059820F4705000F510
:10325000605005906DE04148844209D34048844263
:1032600006D2059820F4705000F55050059060E0AB
:103270003B48844209D33B48844206D2059820F457
:10328000705000F54050059053E03648844209D311
:103290003548844206D2059820F4705000F530502D
:1032A000059046E03048844209D33048844206D233
:1032B000059820F4705000F52050059039E02B4817
:1032C000844209D32A48844206D2059820F47050DB
:1032D00000F5105005902CE02548844209D325487C
:1032E000844206D2059820F4705000F500500590F5
:1032F0001FE02048844209D31F48844206D2059823
:1033000020F4705000F5E050059012E01A48844215
:1033100009D31A48844206D2059820F4705000F56B
:10332000C050059005E0059820F4705000F5A050BD
:1033300005900598E968C86000200690069820F47A
:10334000005000F5005006900698E9684861012099
:1033500007B030BD007A030AC0E1E4000024F400A5
:10336000E0EC040100C31801002D310140A44C0120
:1033700000366E0140E2950180C3C90160600B0216
:10338000F8B50546002400200090284606F035FBDD
:10339000064681E006F0010000287BD0E1B2284615
:1033A00000F0F6FA0090009800F0010030B3012020
:1033B00000FA04F72869406BB84329694863002084
:1033C0000090009820F00100401C009005F11800CA
:1033D00050F8240000998160E1B2324800684268E8
:1033E00028469047E878012808D13CB940F21110EE
:1033F000405D042802D1284605F0D2FF0098C0F3B2
:10340000C00060B100200090009820F00800083053
:10341000009005F1180050F8240000998160009890
:10342000C0F3001060B100200090009820F0100060
:103430001030009005F1180050F8240000998160C8
:103440000098C0F3801060B100200090009820F038
:1034500040004030009005F1180050F82400009919
:1034600081600098C0F3400060B100200090009897
:1034700020F00200801C009005F1180050F8240094
:10348000009981600098C0F3C01018B12146284609
:1034900000F092FA641C7608002E7FF47BAF0120C6
:1034A000F8BD0000500300207CB504460025002034
:1034B0000190204606F0A9FA06466FE006F00100EA
:1034C000002869D0E9B2204606F0A7FA01900198D9
:1034D00000F00100C8B300200190019820F0010025
:1034E000401C019004F1540050F8250001998160BE
:1034F000E078012817D104F1540050F82500006944
:10350000009005EB850104F55D7000EBC10080685B
:103510000099C1F31201411A05EB850204F55D70B3
:1035200000EBC2008161E9B21E48006802682046D3
:103530009047E078012808D13DB940F21110005DB4
:10354000052802D1204605F02BFF0198C0F340006A
:1035500060B100200190019820F00200801C0190D1
:1035600004F1540050F82500019981600198C0F3DE
:10357000C00088B10B480068816820468847002059
:103580000190019820F008000830019004F15400E7
:1035900050F82500019981606D1C7608002E8DD1B0
:1035A00001207CBD500300203EB50446A07A78B1CE
:1035B000D4F80C0100680090009820F00200009000
:1035C000009820F0010000900099D4F80C010160EF
:1035D00000200190019820F00100401C019020691A
:1035E00040680199884321694860094800688169F9
:1035F0002046884700200290029820F0004000F109
:10360000004002900298E168486101203EBD000040
:10361000500300207CB5044600200190019820F062
:10362000100010300190E068806901998843E168DA
:103630008861E068006A0090009800F00F0000EBDD
:10364000800104F55D7000EBC1050098C0F34340B4
:1036500007282DD2DFE800F02C04051D1E2C1F00CA
:1036600027E00098C0F30A1090B10098C0F30A1246
:103670002046E96806F0DBF9E8680099C1F30A1111
:103680000844E860A8690099C1F30A110844A861D8
:103690000FE00EE00DE0082204F2CC51204606F0C7
:1036A000C6F9A8690099C1F30A110844A86100E0AD
:1036B00000BF00BFE068806901990843E168886144
:1036C00001207CBD38B5044608480068C168204622
:1036D000884700200090009820F0080008300090F3
:1036E0000098E1684861012038BD000050030020C7
:1036F0001FB50446002000904FF48970005D0090D3
:103700002348006841692046884720698068019005
:1037100000200390039820F4006000F500600390FF
:103720000398E1684861A07A70B3019800F0010045
:1037300050B340F21510005D012825D19DF800001E
:10374000032821D100200290029820F00100401CA3
:103750000290D4F80C01006802990843D4F80C11C7
:103760000860029820F00200801C0290D4F80C013E
:10377000006802990843D4F80C11086005480068F5
:1037800040F0060003490860012004B010BD0000AD
:103790005003002010ED00E030B587B00446002053
:1037A000029006900590049003900190029820F0FA
:1037B0000100401C029020694068029988432169F9
:1037C00048600021204606F0ADF800250BE0FF21FF
:1037D00004F1180050F82500816004F1540050F8FD
:1037E000250081606D1C6078A842F0D84FF0FF3151
:1037F0002069816106986FF30F00401C06900698BF
:1038000080B200F58030069006992069C161059864
:1038100020F0080008300590059820F00100401CB9
:103820000590059820F00200801C059005992069FC
:103830004161049820F00100401C0490049820F09D
:10384000080008300490049820F00200801C0490C6
:10385000049920690161206900680390039820F4AD
:10386000FE600390039920690160204605F098FDF1
:1038700000200190019820F4805000F580500190C4
:103880000198E1684861044800680169204688475A
:10389000012007B030BD0000500300202DE9F041A9
:1038A00006460F463946304606F0D6F801214FF459
:1038B000897081550021801C8155002511E005EBA0
:1038C000850106F58E7000EBC10401206070257043
:1038D000E5800020E0704020A0600020E060606192
:1038E0006D1C7078A842EAD8002510E005EB850130
:1038F00006F55D7000EBC104002060702570E58066
:10390000E0704020A0600020E06060616D1C707875
:10391000A842EBD8304605F04DFC304605F077FA6A
:103920000021304606F000F9304605F003FB304632
:1039300005F0C0FFBDE8F08138B5044600200090D6
:1039400007480068C16920468847009820F4801025
:1039500000F5801000900098E1684861012038BDB2
:103960005003002038B50446002000900748006846
:10397000016A20468847009820F4001000F50010E6
:1039800000900098E1684861012038BD5003002094
:1039900030B5024615692B6915696C6B24FA01F57F
:1039A00005F0010543EAC51302F1180555F8215049
:1039B000AD6805EA030030BD2DE9F84306460F4621
:1039C00000250020009007EB870106F58E7000EBC4
:1039D000C104D4E90501451AA068A84200D2A5682F
:1039E000E81C4FEA900906F1180050F8270080699A
:1039F000009029E0D4E90501451AA068A84200D248
:103A0000A568E81C4FEA9009ABB2FAB23046E1680B
:103A100006F0CDF8E0682844E060A0692844A06181
:103A200006F1180050F8270080690090D4E90501DC
:103A3000884209D12178012000FA01F83069406BF1
:103A400020EA080031694863009880B2484506D9E9
:103A5000D4E90510884202D260690028CAD1012049
:103A6000BDE8F8834748B0F9000047490860454879
:103A7000B0F9020048604348B0F90400886041484A
:103A8000B0F90600C8603F48B0F9080008613D4839
:103A9000B0F90C0048613B48B0F90E008861394824
:103AA000B0F91000C8613748807C08623548C07C96
:103AB00048623448808A886234480068002853D1BC
:103AC0000846006800284FD13048406800284BD194
:103AD00008464068002847D12C488068002843D118
:103AE0000846806800283FD12848C06800283BD19C
:103AF0000846C068002837D12448006998BB0846AA
:103B0000006980BB2148406968BB0846406950BBDA
:103B10001E48806938BB0846806920BB1B48C069C5
:103B200008BB0846C069F0B91848006AD8B9084609
:103B3000006AC0B91548406AA8B90846406A90B9F9
:103B40001248806A78B90846806A60B9002006E0A9
:103B50000D4951F820100D4A42F82010401C0C2845
:103B6000F6DB00207047FFE7002006E0064951F829
:103B70002010064A42F82010401C0C28F6DB0120D9
:103B8000F0E7000090130220A8130220D8130220AF
:103B90000246094B9A4201D2084801E00648103813
:103BA00001F000531BB1064B0B40C36002E0044B15
:103BB0000B408360704700001064024000600240C8
:103BC0007D0F7D0F21B1026842F00102026003E027
:103BD000026822F00102026070470000016821F0D3
:103BE000010101600021016041608160C1600161EB
:103BF000212141614A49884204D13D21484A103A75
:103C000091608CE046491831884205D14FF47461C7
:103C1000434A103A916082E041493031884205D1EF
:103C20004FF474113E4A103A916078E03C494831B3
:103C3000884205D14FF07461394A103A91606EE0C4
:103C400037496031884204D13649354A103AD1604B
:103C500065E033497831884204D13349304A103A1B
:103C6000D1605CE02E499031884204D12F492C4A22
:103C7000103AD16053E02A49A831884205D14FF06B
:103C80003D51274A103AD16049E02949884204D180
:103C90003D21274A083A116041E025491831884200
:103CA00005D14FF47461224A083A116037E0204987
:103CB0003031884205D14FF474111D4A083A116021
:103CC0002DE01B494831884205D14FF07461184AF4
:103CD000083A116023E016496031884204D1114945
:103CE000134A121F11601AE011497831884204D139
:103CF0000D490F4A121F116011E00D4990318842A1
:103D000004D10A490A4A121F116008E00849A83183
:103D1000884204D14FF03D51054A121F116070478F
:103D2000106002403D000020400F002000003D20B8
:103D30001064024021B1026842F48022026003E074
:103D4000026822F480220260704722B1036843F4C3
:103D50000023036003E0036823F400230360016190
:103D600070470146486880B27047014600200A68E3
:103D700002F400220AB1012000E000207047000098
:103D800010B500220268134B1A40CC680B6823431D
:103D90004C6923438C692343CC6923430C6A234336
:103DA0004C6A23438C6A23434C6B23438C6B234321
:103DB0001A430260426922F00702D1E90B3423431F
:103DC0001A4342610B6943604B6883608B68C36030
:103DD00010BD00003F801CF041607047704710B577
:103DE0000446204607F08EFB10BD00000149086024
:103DF00070470000143C0140F0B50A460021002342
:103E0000002400BF3DE0012505FA01F3156805EA2D
:103E100003049C4234D105684F000326BE40B543DD
:103E2000056015794E00B540066835430560157983
:103E3000012D02D01579022D16D185684F00032679
:103E4000BE40B543856055794E00B5408668354320
:103E50008560456801268E40B54345604568967982
:103E60008E40B6B235434560C5684F000326BE405C
:103E7000B543C560D5794E00B540C6683543C560C9
:103E8000491C1029BFD3F0BDF0B5002300244D0715
:103E9000ED0E02FA05F3CE1000F1200555F826507C
:103EA0004E07F70E0F26BE40B543CF1000F1200697
:103EB00046F82750CE1000F1200555F8265045EA67
:103EC0000304CE1000F1200545F82640F0BD02465F
:103ED000002013690B400BB1012000E00020704767
:103EE00041837047018370474FF6FF7101600021E5
:103EF000017141718171C17170470000024612B1B8
:103F0000012A4CD128E0A1F201200A2823D2DFE8BF
:103F100000F005070A0D101316191C1F21487047E1
:103F200020480830FBE71F481030F8E71D481830DC
:103F3000F5E71C482030F2E71A482830EFE7194827
:103F40003030ECE717483830E9E716488030E6E7CC
:103F500014488830E3E722E0A1F2012008281DD2AE
:103F6000DFE800F004070A0D101316190D48403061
:103F7000D5E70C484830D2E70A485030CFE7094827
:103F80005830CCE707486030C9E706486830C6E7D4
:103F900004487030C3E703487830C0E700BF00BF73
:103FA0000020BCE75804002000487047901302200E
:103FB00010B52DED048B044601F032FDA0B1B4F82C
:103FC0005402FCF7A8FB41EC190B9FED0B0B53ECD3
:103FD000102BFCF7AEFA41EC180BFCF7EDFB00EEF2
:103FE000100ABDEC048B10BDB4F8320200EE100ACA
:103FF000B8EE400AF5E70000CDCCCCCCCCCCEC3F01
:10400000004870470405002070B50A480468001D88
:104010000568001D0668344454B10822064920464C
:1040200001F0DEFC042204491031284601F0D8FCDE
:1040300070BD0000107AFF1F9203002000487047F7
:10404000FC1202200168B1F9021000EE101AB8EE5D
:10405000C00ADFED0A0A20EE200A80ED010A41695C
:1040600091ED000ADFED060A80EE201A9FED050AA9
:1040700021EE000A80ED080A704700001792A63A68
:1040800000003443DB0F494010B52DED048B04468E
:104090002068B0F9000000EE100AB8EEC00ADFEDAB
:1040A0001E0A30EE600ADFED1C0A80EE201A9FED3A
:1040B0001B0A21EE000A84ED030A606890ED000AF5
:1040C000DFED170A80EE201A9FED140A21EE000A98
:1040D00084ED040A94ED051AF0EE410A94ED031AFA
:1040E000B0EE410AFDF784F884ED060A2168B1F9C3
:1040F0000200FCF7FFFA41EC190B9FED0A0B53ECA1
:10410000102BFCF788FA41EC180BFCF755FBA0626A
:10411000BDEC048B10BD000000008045DB0F494062
:1041200000003443CDCCCCCCCC8C774010B52DEDF9
:10413000028B04464FF4CD60005990ED000A04F55F
:10414000CA6080ED120AD0ED0A0AB0EE600AFCF7F0
:10415000AFF8D4F8A006D0ED020A20EE208A04F5CC
:10416000CA60D0ED0A0AB0EE600AFCF7DDF8D4F8B8
:10417000A006D0ED010A00EE608A04F5C46080ED6F
:104180000B8ABDEC028B10BD10B52DED068B0446DD
:10419000D4F8A406B0F90C0000EE100AB8EEC00A7C
:1041A000CB48D0ED000A80EE20AAD4F8A416B1F9CD
:1041B0000400FCF79FFA41EC190B9FEDC60B53EC82
:1041C000102BFCF7B6F941EC180BFCF7F5FA00EEF2
:1041D000100AF1EE400A9FEDC11A80EE810ADFED70
:1041E000C00A10EE20AA04F5806080EDACAA40F26F
:1041F0002460005990ED000ABA4880ED000A0020C2
:10420000B94908600846006838BBB848008800F41F
:10421000007010BBD4F8A406808A00F40070E0B1EE
:10422000B0480068FCF784FA41EC1A0B9FEDB00B24
:1042300053EC102BFCF7D6F841EC190BFCF7BCFA49
:1042400008EE100AB0EE480AFCF77CFFAA4880EDA1
:10425000000A0120A449086011E0A3480068012871
:104260000DD1A248008800F4007040B9D4F8A4062B
:10427000808A00F4007010B100209B4908609E48BD
:10428000D0ED000A974890ED001A70EEC10AB0EE2A
:10429000600AFCF757FFB0EE408AFCF72AFFDFED1B
:1042A000970AB4EEE00AF1EE10FA02D200208E492D
:1042B00008608D48006801281CD18F48D0ED000AA5
:1042C000884890ED001A70EEC10AB0EE600AFCF763
:1042D00039FFB5EEC00AF1EE10FA05DD9FED880A50
:1042E000884880ED000A0DE09FED870A854880ED43
:1042F000000A07E07C48006820B99FED840A8148E5
:1043000080ED000AD4F8A406808A7849086004F594
:10431000806090EDAC0A7B48D0ED000A30EE200AB8
:1043200004F5806080EDAC0ADFED790A9FED790A33
:1043300004F5D660FCF7F2FE04F5806090EDB00A5B
:10434000D0EDAC0A30EE200A80EDB00AD0EDB00A14
:10435000B0EE600AFCF7F6FE04F5806080EDB00A6E
:1043600090EDB01AF0EE410A04F5C46090ED041A25
:10437000B0EE410A04F5B87000F000FA04F5806070
:1043800080EDB60A04F5C46090ED040ADFED620A20
:1043900020EE200A614880ED000A04F5806090ED6F
:1043A000B00ADFED5D0A20EE200A5D4880ED000ACC
:1043B00004F5806090EDB61AF0EE410A04F5C46091
:1043C00090ED0A1AB0EE410A04F5547007F0A4FC0F
:1043D000B1EE400A04F5806080EDB80AD4F8A40676
:1043E000B0F90E0000EE100AB8EEC00A4D48D0ED4C
:1043F000000A80EE20AAD4F8A416B1F90600FCF752
:1044000079F941EC190B9FED480B53EC102BFCF79D
:1044100002F941EC180BFCF7CFF900EE100A9FED02
:104420002F1AC0EE010A9FED2E0A10EE80AA04F5A5
:10443000806080EDADAA90EDAD0AB5EEC00AF1EE58
:1044400010FA08D104F5CA6090ED080A04F58060FE
:1044500080EDB10A09E004F5806090EDB10AD0ED7D
:10446000AD0A30EE200A80EDB10ADFED310A9FED92
:10447000310A04F2C460FCF751FE04F5806090ED4F
:10448000B11AF0EE410A04F5CA6090ED081AB0EED8
:10449000410A04F5A66007F03FFCB1EE400A04F5BE
:1044A000806080EDB70A90EDB71AF0EE410A04F58E
:1044B000CA6090ED011AB0EE410AA83807F02CFC52
:1044C00004F5DC6080ED010ABDEC068B10BD000038
:1044D000F00100203FABCC94D6DF123F0000344304
:1044E000DA0F4940F80100200802002010020020E5
:1044F000CDCCCC7CCA5D0540FC010020CDCCCC3DB0
:10450000A69BC43B14020020A69BC4BB0000000075
:104510008FC2F5BC8FC2F53C00007A441C0200201B
:1045200020020020F40100200000000000C8C94063
:104530009A9999BECDCCCC3E10B504469FED7F3AFA
:10454000DFED7F2A9FED7F2AF6EE001A03230A2271
:1045500011469FED7D1ADFED7D0AB3EE090A04F1E5
:10456000F80007F01DFD9FED753ADFED792A9FED0C
:10457000752AF6EE001A03230A2211469FED751ADA
:10458000DFED720AB3EE090A04F1800007F008FDBE
:104590009FED6A3ADFED6E2A9FED6A2AF6EE001A69
:1045A0000323002209219FED6C1ADFED680AB1EEAA
:1045B000040A04F5B87007F0F3FC012300220A2175
:1045C0009FED641ADFED610AB2EE0C0A04F5F47097
:1045D00007F0A4FC012300220A219FED5C1ADFED05
:1045E0005B0AB2EE0E0A04F5A66007F097FC012301
:1045F000002241F288319FED551ADFED540A9FEDFC
:10460000570A04F5B56007F089FC01230A22114618
:104610009FED4E1ADFED4D0A9FED510A04F518701B
:1046200007F07CFC012341F2883246F2A8119FED8D
:10463000471AF1EE000A9FED4B0A04F5547007F09B
:104640006DFC012341F2883246F2A8119FED3F1A1A
:10465000F0EE000A9FED440A04F5727007F05EFC6C
:10466000012341F2883246F2A8119FED381AF2EE8A
:10467000040A9FED3E0A04F5976007F04FFC012302
:1046800041F2883246F2A8119FED301ADFED2F0A71
:104690009FED370A04F5886007F040FC40F20521E1
:1046A0000020FFF72BFCC4F8200640F20621002072
:1046B000FFF724FCC4F8500606F084FFC4F89C06FB
:1046C00006F07CFFC4F8A00606F07CFF083040F23C
:1046D0002461085106F076FF40F26461085106F04B
:1046E0006DFF08304FF4C561085106F067FF4FF4C5
:1046F000CD61085100214FF4D2600151FFF754FC05
:10470000C4F8A4069FED1B0A04F5C46080ED050AF9
:104710009FED190A303080ED090A9FED0C0A04F56F
:10472000806080EDB80A9FED090A04F5DC6080ED39
:10473000010AFFF783FCC4F8E80610BD17B7D138AB
:104740003333733FCDCC4C3D0000FA4400000000F1
:104750008FC2753F000096440080BB4400001645A0
:1047600000007A4400409C450080A24400409C46E2
:1047700000401C46CDCCECBFCDCCCCBF10B52DED50
:104780000A8B0446B0EE408AF0EE608A84ED0D8A12
:10479000C4ED0C8A94ED0C0AD4ED0D0A30EE600ADB
:1047A00084ED080AD4ED080AB0EE600AFCF7CAFCF2
:1047B00084ED080A94ED080AD4ED160AB4EEE00A76
:1047C000F1EE10FA0FD294ED080AD4ED160AF1EECC
:1047D000600AB4EEE00AF1EE10FA04DD9FEDEA0A99
:1047E000BDEC0A8B10BDE06B012866D194ED000A88
:1047F000D4ED080A20EE200A10EE101A0846FBF746
:1048000097FFC4E9040194ED010AD4ED0B0A20EEF0
:10481000200A84ED060A94ED080AD4ED090A30EE68
:10482000600AD4ED020A20EE200A84ED070A94ED16
:104830000B0AD4ED080A30EE200A84ED0B0A9FED36
:10484000D30A04F12C0001F039FBD4ED110AB0EECB
:10485000600A04F1180001F031FB94ED070A10EE34
:10486000101A0846FBF764FF41EC1A0B94ED060A98
:1048700010EE101A0846FBF75BFF41EC1C0B94EDA1
:10488000041BB0EE410AF0EE610A53EC102BFBF76B
:10489000A9FD41EC1B0B53EC1A2BFBF7A3FD41ECDC
:1048A000190BFBF789FFA063D4ED100AB0EE600A84
:1048B00004F1380001F002FB5AE1E06B022873D1E9
:1048C00094ED080AD4ED090A30EE600AD4ED000A2E
:1048D00020EE200A10EE101A0846FBF729FFC4E963
:1048E000040194ED010AD4ED080A20EE200A84EDBB
:1048F000060A94ED080AD4ED090AB0EE001A01EE9A
:10490000600AD4ED0A0A30EE200AD4ED020A20EE45
:10491000200A84ED070AD4ED110AB0EE600A04F112
:10492000180001F0CBFA94ED070A10EE101A0846B1
:10493000FBF7FEFE41EC1A0B94ED060A10EE101A7E
:104940000846FBF7F5FE41EC1C0B94ED041BB0EEA2
:10495000410AF0EE610A53EC102BFBF743FD41ECEA
:104960001B0B53EC1A2BFBF73DFD41EC190BFBF72E
:1049700023FFA06494ED140AD4ED120A30EE200A4D
:1049800084ED130A94ED130A84ED0E0AD4ED100A97
:10499000B0EE600A04F1380001F090FA94ED130AC9
:1049A00084ED140AE4E0FFE7E06B032884D194ED82
:1049B000000AD4ED080A20EE200A10EE101A08466C
:1049C000FBF7B6FEC4E90401E06D012806D194EDC1
:1049D000080AB5EEC00AF1EE10FA53DCE06D401C97
:1049E00030B994ED080AB5EEC00AF1EE10FA49D3D9
:1049F000D4ED080AB0EE600A01F01AFAD4ED190AF3
:104A0000B4EEE00AF1EE10FA08D894ED0B0AD4EDFA
:104A1000080A30EE200A84ED0B0A33E0D4ED080AD0
:104A2000B0EE600A01F004FAD4ED190A94ED181AF8
:104A300070EE810AB4EEE00AF1EE10FA04DB9FEDAD
:104A4000520A84ED0B0A1DE0D4ED080AB0EE600AAC
:104A500001F0EEF9D4ED180A94ED191A70EE810AFE
:104A600030EEC00AD4ED180A80EE201A84ED1A1A2E
:104A700094ED0B0AD4ED1A0A94ED081A00EE810A9F
:104A800084ED0B0A94ED010AD4ED0B0A20EE200A06
:104A900084ED060A94ED080AD4ED090A30EE600AA6
:104AA000D4ED020A20EE200AD4ED1B0AB7EE001A5C
:104AB00071EE600A20EE200AD4ED1B0A94ED1C1A58
:104AC00000EE810A84ED070A94ED070A10EE101A31
:104AD0000846FBF72DFE41EC1A0B94ED060A10EE8A
:104AE000101A0846FBF724FE41EC1C0B94ED041B46
:104AF000B0EE410AF0EE610A53EC102BFBF772FCAA
:104B000041EC1B0B53EC1A2BFBF76CFC41EC190B23
:104B1000FBF752FEA06394ED0E0AD4ED100AB4EE3A
:104B2000E00AF1EE10FA06DD94ED100A84ED0E0AAB
:104B30000120E06501E00020E06594ED0E0AD4ED6F
:104B4000100AF1EE600AB4EEE00AF1EE10FA09D2B2
:104B500094ED100AB1EE400A84ED0E0A4FF0FF30DA
:104B6000E06501E00020E06594ED070A84ED1C0A91
:104B700094ED090A84ED0A0A94ED080A84ED090A05
:104B800094ED0E0A2CE600000000000000409C4658
:104B90002E490978012912D0017801290FD100F599
:104BA000C46191ED060A00F5806181EDB00A00F55F
:104BB000CA6191ED080A00F5806181EDB10A2349CF
:104BC0000978022915D00178022912D11F490978E4
:104BD00079B100F5C46191ED060A00F5806181EDBF
:104BE000B00A00F5CA6191ED080A00F5806181ED17
:104BF000B10A017802290DD10021144A117049B17E
:104C00009FED130A00F5806181EDB00A9FED100A57
:104C100081EDB10A0D490978062912D001780629DB
:104C20000FD100F5C46191ED040A00F5806181EDBA
:104C3000B00A00F5CA6191ED080A00F5806181EDC6
:104C4000B10A0178014A1170704700003C0200204F
:104C50000000000010B50446207860B99FED100AEE
:104C600004F5806080EDB80A9FED0D0A04F5DC6064
:104C700080ED010A13E02078022803D1204600F0DD
:104C8000F5F80CE02078012803D1204600F06AF8FE
:104C900005E02078062802D12046FFF775FA10BDFE
:104CA0000000000010B50446FEF7DCFE012803D129
:104CB00000202949086001E0FEF7D4FE264800687C
:104CC00040F2DC51884208DD2078022802D02078AA
:104CD000032811D1012020700EE0D4F8A406C07A78
:104CE000032802D10220207006E0D4F8A406C07A7E
:104CF000012801D106202070D4F8A406C07A032828
:104D00000DD116480068022809D19FED150A04F557
:104D1000806080EDB00A9FED120A80EDB10AD4F8F0
:104D2000A406C07A022806D0D4F8A406C07A0B499B
:104D30000968884202D0002007490860D4F8A40618
:104D4000C07A022801D100202070D4F8A406C07ACD
:104D50000249086010BD0000340200203802002023
:104D60000000000010B504469FED3B0A04F580608A
:104D700080EDAC0A9FED380A80EDAD0A90EDB00AE7
:104D8000D0EDAC0A30EE200A80EDB00A90EDB10A09
:104D9000D0EDAD0A30EE200A80EDB10ADFED2F0A2A
:104DA0009FED2F0A04F2C460FCF7B8F9DFED2D0A7D
:104DB0009FED2D0A04F5D860FCF7B0F904F580608A
:104DC00090EDB11AF0EE410A04F5CA6090ED0A1AAE
:104DD000B0EE410A04F1F80000F098F904F58060A3
:104DE00080EDB70A90EDB71AF0EE410A04F5CA60FB
:104DF00090ED111AB0EE410A04F5727006F08CFFC6
:104E000004F5DC6080ED010A04F5806090EDB01AD5
:104E1000F0EE410A04F5C46090ED061AB0EE410AC6
:104E200004F1800000F072F904F5806080EDB60AAC
:104E300090EDB61AF0EE410A04F5C46090ED0A1A3E
:104E4000B0EE410A04F5547006F066FF04F5806088
:104E500080EDB80A10BD0000000000009A9999BECC
:104E6000CDCCCC3E3333F3BF3333F33F10B52DED10
:104E7000068B0446D4F8A406B0F90C0000EE100A24
:104E8000B8EEC00A6E48D0ED000A80EE20AAD4F831
:104E9000A416B1F90400FBF72DFC41EC190B9FEDB2
:104EA000690B53EC102BFBF744FB41EC180BFBF7A1
:104EB00083FC00EE100A9FED651AC0EE010A9FED1B
:104EC000640A00EE80AA04F5806080EDACAADFEDF4
:104ED000610A9FED610A04F5D660FCF71FF904F53D
:104EE000806090EDB00AD0EDAC0A30EE200A80ED83
:104EF000B00ADFED5A0A9FED5A0A04F5D860FCF7B4
:104F00000DF904F5806090EDB01AF0EE410A04F559
:104F1000C46090ED061AB0EE410A04F18000FFF77C
:104F20002DFC04F5806080EDB60A90EDB61AF0EE27
:104F3000410A04F5C46090ED0A1AB0EE410A04F586
:104F4000547006F0E9FE04F5806080EDB80AD4F8EC
:104F5000A406B0F90E0000EE100AB8EEC00A4148EF
:104F6000D0ED000A80EE20AAD4F8A416B1F906000C
:104F7000FBF7C0FB41EC190B9FED3B0B53EC102BE7
:104F8000FBF749FB41EC180BFBF716FC00EE100A8F
:104F90009FED2E1AC0EE010A9FED2D0A10EE80AA99
:104FA00004F5806080EDADAA90EDAD0AB5EEC00AC3
:104FB000F1EE10FA08D104F5CA6090ED080A04F584
:104FC000806080EDB10A09E004F5806090EDB10ADF
:104FD000D0EDAD0A30EE200A80EDB10ADFED240AF3
:104FE0009FED240A04F2C460FCF798F804F5806091
:104FF00090EDB11AF0EE410A04F5CA6090ED081A7E
:10500000B0EE410A04F5A66006F086FEB1EE400A55
:1050100004F5806080EDB70A90EDB71AF0EE410A12
:1050200004F5CA6090ED011AB0EE410AA83806F006
:1050300073FE04F5DC6080ED010ABDEC068B10BD4B
:10504000F00100203FABCC94D6DF123F0000344388
:10505000DA0F4940A69B44BBA69B443B3333F3BFC6
:105060003333F33FF40100200000000000C8C940C2
:105070009A9999BECDCCCC3E08B5FA2008F0CAF971
:105080001D48FFF759FA36E01C48FEF7FDFF1B48A4
:105090003030FEF7D7FF1848FFF748F81648FFF7FB
:1050A00001FE1548FFF774FD1348FFF7D3FD0020FC
:1050B00000901148D0F8E80690ED000ABDEEC00A55
:1050C00010EE100A83B20D48C03090ED010ABDEE1B
:1050D000C00A10EE100A82B2094890EDB80ABDEE7F
:1050E000C00A10EE100A81B240F2FF10FCF758F926
:1050F000012008F08FF9C7E708140220281A0220BF
:105100000818022000487047401A022010B52DED03
:105110000A8B0446B0EE408AF0EE608A84ED0D8A78
:10512000C4ED0C8A94ED0C0AD4ED0D0A30EE600A41
:1051300084ED080AD4ED080AB0EE600AFCF702F824
:1051400084ED080AE06B012866D194ED000AD4EDE5
:10515000080A20EE200A10EE101A0846FBF7E8FABB
:10516000C4E9040194ED010AD4ED0B0A20EE200AF3
:1051700084ED060A94ED080AD4ED090A30EE600ABF
:10518000D4ED020A20EE200A84ED070A94ED0B0A02
:10519000D4ED080A30EE200A84ED0B0A9FED5F0A79
:1051A00004F12C0000F08AFED4ED110AB0EE600A82
:1051B00004F1180000F082FE94ED070A10EE101AB8
:1051C0000846FBF7B5FA41EC1A0B94ED060A10EE0F
:1051D000101A0846FBF7ACFA41EC1C0B94ED041BCB
:1051E000B0EE410AF0EE610A53EC102BFBF7FAF82F
:1051F00041EC1B0B53EC1A2BFBF7F4F841EC190BA9
:10520000FBF7DAFAA063D4ED100AB0EE600A04F1FD
:10521000380000F053FE74E0E06B022871D194ED89
:10522000080AD4ED090A30EE600AD4ED000A20EE37
:10523000200A10EE101A0846FBF77AFAC4E90401B6
:1052400094ED010AD4ED080A20EE200A84ED060A46
:1052500094ED080AD4ED090AB0EE001A01EE600AD6
:10526000D4ED0A0A30EE200AD4ED020A20EE200A1C
:1052700084ED070AD4ED110AB0EE600A04F11800BB
:1052800000F01CFE94ED070A10EE101A0846FBF71A
:105290004FFA41EC1A0B94ED060A10EE101A08466C
:1052A000FBF746FA41EC1C0B94ED041BB0EE410AEF
:1052B000F0EE610A53EC102BFBF794F841EC1B0B5A
:1052C00053EC1A2BFBF78EF841EC190BFBF774FA31
:1052D000A06494ED140AD4ED120A30EE200A84ED95
:1052E000130A94ED130A84ED0E0AD4ED100AB0EE01
:1052F000600A04F1380000F0E1FD94ED130A84ED3A
:10530000140A94ED090A84ED0A0A94ED080A84ED62
:10531000090A94ED0E0ABDEC0A8B10BD00409C46B4
:1053200070B506463048007800285BD12F480068E9
:10533000B0F5006F02D100202C4908602B480068AE
:105340002B490968884203D100202749087070BDA5
:105350002648006826490968884206D9234800681B
:10536000C0F500602349086006E0214800681F4935
:105370000968401A1F4908601E480068402811D972
:105380001A48008885B24024184800684030174900
:105390000860184800684038164908600120124922
:1053A000087018E01148008885B21248008884B25D
:1053B0000E4800680F49096808440C49086000203D
:1053C0000C490860402C03D102200749087002E014
:1053D00001200549087008484219234681213046BA
:1053E000FDF7DAFE00BFB2E7C4030020BC030020D3
:1053F000B8030020C00300206226022000BFFEE7A1
:10540000F0B50546059C00207FE093ED050A00EB12
:105410004006404F07EB8606D6ED000A20EE200A34
:10542000D3ED060A00EB400607EB860696ED011A5F
:1054300000EE810AD3ED070A00EB400607EB860673
:1054400096ED021A00EE810A334E06EB8006D6ED89
:10545000000A30EE200A05EB800686ED000A93ED87
:10546000010A00EB40062D4F07EB8606D6ED000A39
:1054700020EE200AD3ED020A00EB400607EB860679
:1054800096ED011A00EE810AD3ED030A00EB400607
:1054900007EB860696ED021A00EE810A204E06EB17
:1054A0008006D6ED000A30EE200A01EB800686ED7C
:1054B000000A94ED010A00EB40061A4F07EB86063E
:1054C000D6ED000A20EE200AD4ED020A00EB4006D9
:1054D00007EB860696ED011A00EE810AD4ED030A69
:1054E00000EB400607EB860696ED021A00EE810AF5
:1054F0000D4E06EB8006D6ED000A30EE200A02EBD8
:10550000800686ED000A461CF0B20328FFF67DAF48
:10551000F0BD0000FC000020C80F02202C0100207C
:10552000D40F022050010020F00F02202DED028B3D
:1055300082B00A2007F06EFF00BF06F08BFA002849
:10554000FBD100BF06F068F90028FBD108F0BEFDD2
:105550000190A7E1012101A807F08AFF1722D24993
:105560003A2006F0E5FAD149CF4806F0FDFAD049D5
:10557000CD480F3006F08CF9CD48CC4BCD4ACE4902
:105580000090CE48FFF73CFF00252DE0CB4800EB14
:10559000850090ED000A10EE101A0846FBF7C8F8D7
:1055A00041EC180B9FEDC60B53EC102BFBF7ECF8FE
:1055B00019D2C24800EB850090ED000A10EE101AD7
:1055C0000846FBF7B5F841EC180B9FEDBF0B53EC09
:1055D000102BFBF7C1F806D29FEDBD0AB74800EBD0
:1055E000850080ED000A6D1C032DCFDBAF480078ED
:1055F00000F00100002846D0B6480078F0BB012139
:1056000041F2883001F010FDDFEDB30A9FEDB30ADF
:10561000B34A0121B34800F021FCA64AA649B2488A
:10562000FBF74CFBB14B1A1F111FAF4805F0CEFF23
:10563000A14890ED000AAE4880ED000AAD4880ED2B
:10564000000AAD4880ED000A9B4890ED010AA84889
:1056500080ED010AA74880ED010AA74880ED010A04
:10566000954890ED020AA24880ED020AA14880ED1B
:10567000020AA14880ED020A964800E004E00078A2
:10568000401C94490870BBE09A4890ED000A9A4883
:1056900080ED000A964890ED000A964880ED000AD9
:1056A00090ED000A9548D0ED000A20EE200A9248BD
:1056B000D0ED000A914890ED011A00EE810A7E4873
:1056C000D0ED000A8D4890ED021A00EE810A88485C
:1056D00080ED000A874890ED010A874880ED010AB5
:1056E000834890ED010A834880ED010A90ED010A9C
:1056F0008248D0ED000A20EE200A7F48D0ED010A52
:105700007E4890ED011A00EE810A6B48D0ED010A47
:105710007A4890ED021A00EE810A754880ED010A80
:10572000744890ED020A744880ED020A704890EDCA
:10573000020A704880ED020A90ED020A6F48D0ED2F
:10574000000A20EE200A6C48D0ED020A6B4890ED6A
:10575000011A00EE810A5848D0ED020A674890ED20
:10576000021A00EE810A624880ED020A514B02469D
:1057700052499FED630A5C48FBF718FC5B4B1A1F0C
:10578000111F594805F022FF5E480088B8B95E48ED
:1057900090ED000A5D4880ED000A5B4890ED010A3B
:1057A0005A4880ED010A584890ED020A574880EDAA
:1057B000020A54480088401C5249088020E05148A1
:1057C0000088B0F5FA6F14DA42F210715F2005F02C
:1057D00055FE4F48007830B134480278494B37497C
:1057E0004A4805F067FF47480088401C4549088043
:1057F00006E044480088B0F5FA6F01D105F032FEAA
:105800002A48D0ED040AB0EE600A00F093F80020B8
:1058100007F09CFC3F490860002440E004F134009C
:105820003D4931F9100000EE100AB8EEC00ADFED74
:105830003B0A80EE201AB3EE000A21EE000A384837
:1058400000EB840080ED000A04F1370031F910000C
:1058500000EE100AB8EEC00ADFED300A80EE201A22
:105860009FED300A21EE000A2F4800EB840080ED06
:10587000000A04F13D0031F9100000EE100AB8EE04
:10588000C00ADFED260A80EE201A9FED280A21EEDD
:10589000000A274800EB840080ED000A641C032CFA
:1058A000BCDB00BF56E60000900F0220A80F0220CC
:1058B000E00F02201410022008100220FC0F02202A
:1058C000FCA9F1D24D6270BFFCA9F1D24D62703FCC
:1058D00000000000750100200080894500A08C4573
:1058E000A8E500083C1002202C10022028100220FD
:1058F000D0100220C4100220B8100220B4E5000825
:105900006F12833A7601002020010020C80F022088
:1059100074010020F8000020C0230220000000478E
:10592000941002200000FA44A0100220000034432A
:10593000AC10022010B52DED028BB0EE408A21484C
:105940000078F8B1DFED200AB0EE480A1F4800F0F9
:1059500077F91E4890ED080AB5EEC00AF1EE10FA8C
:1059600003D29FED1B0A80ED080A184890ED080A43
:10597000BCEEC00A10EE100A84B22146154801F0B0
:10598000F0FE1CE09FED100AB4EEC08AF1EE10FAB2
:1059900010DD11480078401C0F4908700846007857
:1059A000C82807DD0120074908709FED0C0A074849
:1059B00080ED0A0A41F28731064801F0D2FEBDECC3
:1059C000028B10BD74010020000020423C10022018
:1059D00000000000000400407801002000401C4549
:1059E00030B50B46002100BF16E00A24B4EB107F4F
:1059F00005D9302404EB107403F8114005E041246C
:105A000004EB10740A3C03F81140000100254C001F
:105A1000641C1D554C1CE1B29142E6DB30BD000018
:105A200010B508F053FB05490969401AB0F57A7FB3
:105A300001D2012010BD0020FCE700000405002079
:105A400008B50CE000200090054802780548017870
:105A500000232220FBF7F6FB322007F0DBFCF1E706
:105A6000E0100220D81D02201CB50121402000F0CA
:105A7000C9FA4FF40050009001208DF80400002076
:105A80008DF8060003208DF8050001208DF8070031
:105A900069460348FEF7B0F900F004F81CBD0000A9
:105AA0000018024010B54FF400510248FEF718FAF2
:105AB00010BD00000018024010B54FF4005102481C
:105AC000FEF710FA10BD0000001802401CB50121BD
:105AD000702000F097FA4FF48040009001208DF87C
