:020000040800F2
:10000000304002207D020008456B0008F9550008C9
:10001000416B0008E112000801B100080000000077
:10002000000000000000000000000000C501000802
:10003000433F000800000000190200086381000827
:10004000A1020008A1020008A1020008A102000804
:10005000A1020008A1020008A1020008A1020008F4
:10006000A1020008A1020008A1020008A1020008E4
:10007000A1020008A1020008A1020008A1020008D4
:10008000A1020008A1020008A1020008A1020008C4
:1000900049140008A1020008A1020008A1020008FA
:1000A000A1020008A1020008A1020008A1020008A4
:1000B000A1020008A1020008A1020008A102000894
:1000C000A1020008A1020008A1020008A102000884
:1000D000A1020008318E0008A1020008158F000857
:1000E000A1020008A1020008E56B0008A1020008B7
:1000F000A1020008A1020008A1020008A102000854
:10010000A1020008A1020008A1020008A102000843
:10011000A1020008A1020008A1020008A102000833
:10012000A1020008A1020008A1020008A102000823
:10013000A1020008A1020008A1020008A102000813
:10014000E1150008A1020008A1020008D56B000813
:10015000A1020008A1020008A102000835910008D0
:10016000A1020008A1020008A1020008A1020008E3
:10017000A1020008A1020008A1020008000000007E
:10018000A1020008A1020008A1020008AD8D00082C
:10019000A1020008A1020008A1020008A1020008B3
:1001A0000000000000000000A1020008DFF810D0ED
:1001B00000F054FC0048004745CF0008AFF3008032
:1001C000304002202A4B19680868B0E8F04F80F3ED
:1001D0000988BFF36F8F4FF0000080F311887047DC
:1001E0000000000006480068006880F3088862B6D6
:1001F00061B6BFF34F8FBFF36F8F00DF00BF00BF4B
:1002000008ED00E0DFF80C00016841F470010160C6
:10021000704700BF88ED00E0EFF30980BFF36F8FF8
:10022000134B1A681EF0100F08BF20ED108A20E94A
:10023000F04F106008B44FF0500080F31188BFF306
:100240004F8FBFF36F8F0EF03DFE4FF0000080F335
:10025000118808BC19680868B0E8F04F1EF0100F4C
:1002600008BFB0EC108A80F30988BFF36F8F704726
:1002700048000020EFF3058070470000094801683E
:1002800041F4700101600848804708480047FEE7D4
:10029000FEE7FEE7FEE7FEE7FEE7FEE7FEE7FEE736
:1002A000FEE7000088ED00E079810008AD0100085C
:1002B0009FED1A1AF5EE000A40EE010ABDEEE00AC3
:1002C000F5EEC00A10EE100AF1EE10FA38BF401E2B
:1002D00000EE100A1349F7EE001AB8EEC00A30EE2D
:1002E000C00ADFED0F0A20EE200AFCEEC00A10EE75
:1002F000900AC0F3080000EE900A01EB8000F8EECF
:10030000600A90ED011A70EE600A90ED000A71EE3D
:10031000E01A21EE800A00EE810A704783F9223E3E
:1003200000000044B0010108DFED190AB5EEC00A73
:1003300060EE200ABDEEE01A11EE100AF1EE10FA9E
:1003400038BF401E00EE100A1349F7EE001AB8EE4F
:10035000C00A30EEC00ADFED0F0A60EE200ABCEEE4
:10036000E00A10EE100AC0F3080000EE100A01EBDC
:100370008000B8EE400A90ED011A70EEC00A90EDD0
:10038000000A71EEE01A21EE800A00EE810A704741
:1003900083F9223E00000044B001010840EA010355
:1003A0009B0703D009E008C9121F08C0042AFAD22B
:1003B00003E011F8013B00F8013B521EF9D27047EF
:1003C000D2B201E000F8012B491EFBD27047002297
:1003D000F6E710B513460A4604461946FFF7F0FF44
:1003E000204610BD2DE9FE4F804681EA0300C00F74
:1003F0000C46009021F0004123F00045B8EB0200CC
:10040000A94105D24046214690461C460B4602466D
:1004100023F00040104347D0270DC7F30A00C3F371
:100420000A510290401A019040286BDAC3F313007E
:1004300040F4801B0098924620B10023D2EB030ABF
:1004400063EB0B0B01985946C0F14002504600F097
:1004500028FA06460D4650465946019A00F040FAE1
:1004600010EB08006141002487EA115284EAE77327
:100470001A4340D0009A62B3019A012A4FEA075208
:1004800015DC001B61EB02014FF0004202EA07524B
:10049000CDE90042001C41F5801132462B4600F0A8
:1004A00077FA03B0BDE8F08F40462146F9E7001B1C
:1004B00061EB0201001C41F5801300185B4120181C
:1004C000A2F5001747EB030140EAD570B6196D415C
:1004D00011E06D084FEA360645EAC0754FEA07524B
:1004E000001B61EB0201001C41F5801149084FEA35
:1004F00030000019514132462B4603B0BDE8F04FA1
:1005000000F037BA0098012240000023D0EB02022D
:1005100063EBE073009821464FEAE074B8EB00000B
:1005200061EB0401E9E783F000435BE781F0004100
:1005300058E72DE9FE4F81EA030404F0004421F05E
:10054000004100944FF0000B23F0004350EA0104F7
:100550005ED052EA03045BD0C3F30A54C1F30A55D8
:100560002C44A4F2F3340194A0FB0254C1F3130110
:1005700041F48011C3F3130343F4801301FB0244DD
:1005800000FB034E840A970A44EA815447EA8357E2
:10059000A4FB076802958D0A05FB07854FEA932C9B
:1005A00004FB0C542705029D4FEA065847EA16370C
:1005B000B5EB08056EEB070C870E920E47EA811724
:1005C00042EA8312A7FB0201B6EB0B0164EB0004C5
:1005D0002B0D43EA0C335E1844EB1C50DA465146AF
:1005E000E7FB0201C5F313044FEA0B3343EA14534C
:1005F0004FEA0432019C43EA0603A4F10C0402947E
:10060000009CCDE900B400F0C3F903B0BDE8F08F61
:1006100000200146F9E72DE9F04D81EA030404F0DA
:10062000004B21F0004514464FF0000A23F0004132
:1006300050EA050220D054EA01021DD0C5F30A5742
:100640000246C5F31303C1F31300C1F30A5640F485
:10065000801543F48013A7EB0608101BD64608F25A
:10066000FD3873EB050002D308F1010801E0921890
:100670005B41B8F1000F03DA00200146BDE8F08DC0
:1006800000204FF48011064684460EE0171B73EBE2
:10069000050705D3121B63EB050306434CEA010C67
:1006A00049084FEA300092185B4150EA0107EDD14A
:1006B00052EA030012D082EA040083EA05010843EB
:1006C00005D0101BAB4106D20122002306E0002218
:1006D0004FF0004302E06FF0010253101AEB0600E6
:1006E0004CEB085110EB0A0041EB0B01BDE8F04D5B
:1006F00000F03FB90EB5C10F80EAE0700844CA07A8
:10070000002140F233438DE80E000A460B4600F00C
:100710003FF903B000BD70B5C1F30A5201F00045C6
:100720000024C1F3130140F2FF3341F480119A42D7
:1007300001DA002070BD40F233439A42A2F2334204
:1007400003DC524200F0BCF800E090402C43F1D0B2
:10075000404270BD00F0004230F000400AD0C10DB0
:1007600001F56071C0F3160042EA0151C20840076A
:1007700011437047002001467047000030B5041E49
:1007800071F1000404DB4FF00044404264EB0101CE
:10079000141E73F1000405DB1C464FF00043524267
:1007A00063EB04038B4208BF824230BD30B5041EA8
:1007B00071F1000404DB4FF00044404264EB01019E
:1007C000141E73F1000405DB1C464FF00043524237
:1007D00063EB0403994208BF904230BD01F000432F
:1007E00030B421F0004150EA010206D00A0DA2F512
:1007F0006072C1F31301002A02DC30BC0020704794
:10080000440F44EAC104C100E01830BC00EBC25000
:1008100000F078B830B50B460146002020220124B4
:1008200009E021FA02F59D4205D303FA02F5491BBE
:1008300004FA02F52844151EA2F10102F1DC30BDD4
:100840002DE9F05F0546002092469B468846064605
:10085000814640241BE0284641464746224600F098
:100860002FF853465A46C01A914110D311461846E4
:10087000224600F016F82D1A67EB01084F46224673
:100880000120002100F00DF817EB00094E41201E59
:10089000A4F10104DFDC484631462A464346BDE860
:1008A000F09F202A04DB203A00FA02F10020704772
:1008B0009140C2F1200320FA03F31943904070479E
:1008C000202A04DB203A21FA02F00021704721FAA5
:1008D00002F3D040C2F1200291400843194670470C
:1008E000202A06DBCB17203A41FA02F043EAE073F4
:1008F00006E041FA02F3D040C2F1200291400843E1
:10090000194670470029A8BF7047401C490008BF1E
:1009100020F00100704710B4B0FA80FC00FA0CF02F
:1009200050EA010404BF10BC704749B1CCF1200467
:1009300021FA04F411FA0CF118BF012121430843F4
:10094000A3EB0C01CB1D4FEA00614FEA102042BF20
:10095000002010BC704700EBC35010440029A4BF16
:1009600010BC7047401C490008BF20F0010010BCBB
:10097000704710B5141E73F1000408DA401C41F1F1
:10098000000192185B411A4301D120F0010010BD13
:100990002DE9F04D92469B4611B1B1FA81F202E089
:1009A000B0FA80F220329046FFF77BFF04460F46F4
:1009B00040EA0A0041EA0B0153465A46084313D065
:1009C000114653EA010019D0C8F140025046FFF722
:1009D00077FF05460E46504659464246FFF761FFEF
:1009E000084305D0012004E020463946BDE8F08DDB
:1009F0000020054346EAE0762C4337430A98630516
:100A0000E40AA0EB08000022FD0A44EA47540A3039
:100A100002D500200146E9E7010510196941DDE929
:100A2000084500196941BDE8F04DA2E7C1F30A523B
:100A3000C1F3130140F2FF3341F480119A4202DA0C
:100A400000200146704740F233439A42A2F23342FB
:100A500002DC5242FFF734BFFFF723BF064C074DBD
:100A600006E0E06840F0010394E80700984710347E
:100A7000AC42F6D3FFF79EFB540A0108740A010842
:100A800070B58C1810F8015B15F0070301D110F850
:100A9000013B2A1106D110F8012B03E010F8016B7D
:100AA00001F8016B5B1EF9D12B0705D40023521E00
:100AB0000DD401F8013BFAE710F8013BCB1A921C68
:100AC00003E013F8015B01F8015B521EF9D5A14266
:100AD000D8D3002070BD21B1826842F0010282604B
:100AE00003E0826822F00102826070470021084A18
:100AF0001168084A1140D0E900231A4383681A4359
:100B0000C3681A431143044AC2F804137047000033
:100B100004230140E030FCFF0020014030B50246D4
:100B2000002000235068104C20400D790C6844EAE6
:100B300005242043506090680C4C2040D1E90354B8
:100B40002C438D682C434D7944EA45042043906042
:100B5000D06A20F470000C7D641EE4B2234340EAA6
:100B60000350D06230BD0000FFFEFFFCFDF7FFC068
:100B7000F0B504460D4600200021092D11DDE06886
:100B8000A5F10A0606EB4607072606FA07F1884391
:100B9000A5F10A0606EB460603FA06F10843E060F3
:100BA0000CE0206905EB4507072606FA07F18843A4
:100BB00005EB450603FA06F108432061072A0FDA20
:100BC000606B561E06EB86071F2606FA07F1884360
:100BD000561E06EB860605FA06F10843606322E01E
:100BE0000D2A0FDA206BD61F06EB86071F2606FAA2
:100BF00007F18843D61F06EB860605FA06F108437F
:100C0000206310E0E06AA2F10D0606EB86071F26BE
:100C100006FA07F18843A2F10D0606EB860605FAEF
:100C200006F10843E062F0BD816841F080418160D7
:100C30007047000038B10849096841F40001074ACB
:100C4000C2F8041306E00449096821F40001034ACC
:100C5000C2F8041370470000042301400020014043
:100C600010B52DED028BB0EE408AB0EE480A0AF0C6
:100C70008FFDBDEC028B10BD10B52DED028BB0EEDB
:100C8000408AF0EE608AF0EE680AB0EE480A0AF098
:100C900015FEBDEC028B10BD10B52DED028BB0EE34
:100CA000408AB0EE480AFFF703FBBDEC028B10BD93
:100CB000F0EE400AF5EEC00AF1EE10FA02DDB0EEF9
:100CC000600A7047B1EE600AFBE7000018B19FEDC3
:100CD000020A80ED000A7047000000007047000023
:100CE00070B52DED0C8B84B006460C4615469FED75
:100CF000990AF0EE408A9FED970AB0EE409A9FED78
:100D0000950AF0EE40BA9FED930AF0EE409A9FEDFF
:100D1000910AB0EE40AA0EB104B11DB904B0BDEC09
:100D20000C8B70BD8C48FFF7D1FF8C48FFF7D6FFC6
:100D30008A48D0ED000A9FED8A1A60EE810AB0EE73
:100D4000600A00F039F9F0EE408A28EEA80AF0EEC9
:100D5000408A8248D0ED000AB0EE001A60EE810AA7
:100D60009FED7F1A60EE810AB0EE600A00F024F970
:100D7000B0EE409A29EE090AB0EE409ADFED790A0A
:100D8000B7EE000A00EEA80ADFED770A00EEC90A06
:100D9000DFED760A20EE200A754880ED000A6E48E5
:100DA00090ED000ADFED730A80EE201AB7EE000A1C
:100DB00031EE000A20EE000A6D48D0ED000A80EE08
:100DC000801A6D4880ED001A94ED000AB5EEC00A55
:100DD000F1EE10FA0DD194ED010AB5EEC00AF1EE74
:100DE00010FA06D194ED020AB5EEC00AF1EE10FA3F
:100DF00046D09FED580AB0EE408A00200190029044
:100E00000390D4ED000A60EEA00A94ED011AD4ED2F
:100E1000011A41EE210A94ED021AD4ED021A41EEB4
:100E2000210AB0EE600A00F0A9F8B0EE408A94ED15
:100E3000000A20EE080A8DED010A94ED010A20EE69
:100E4000080A8DED020A94ED020A20EE080A8DEDE3
:100E5000030ADDED010AF1EE600AB0EE600AFFF769
:100E6000FFFEF0EE409A9DED031AF0EE410A9DED73
:100E7000021AB0EE410AFFF7FFFEB0EE40AA07E00B
:100E80009FED340AF0EE409A9FED320AB0EE40AA90
:100E900095ED000AB5EEC00AF1EE10FA0DD195ED10
:100EA000010AB5EEC00AF1EE10FA06D195ED020A7C
:100EB000B5EEC00AF1EE10FA3CD0B0EE690A00F0CF
:100EC0007BF8B0EE408AB0EE690AFFF7E5FEB0EEBF
:100ED00040DAB0EE4A0A00F06FF8F0EE40AAB0EE49
:100EE0004A0AFFF7D9FEB0EE40BA28EE2A0AD5ED3D
:100EF000010A20EE200AD5ED000A0DEE200A68EE68
:100F00000B0A95ED021A00EE810AB0EE40CA95ED8B
:100F1000010A20EE0B0AD5ED020A0AEEE00AF0EE15
:100F200040CAF0EE6C0AB0EE4C0AFFF7A5FEF0EEF8
:100F300040BA03E09FED070AF0EE40BAB0EE4A1A5D
:100F4000F0EE690AB0EE6B0A30460BF037FC00BFDA
:100F5000E4E6000000000000380900203C09002001
:100F600035FA8E3CC1BFAD3B9DF8C5362F7C1C4188
:100F700040090020506CC24A44090020F0EE400AAB
:100F8000F6EE001A60EEA11AB0EE611AB0EE600A39
:100F900010EE100A0749A1EB600000EE100A21EEE6
:100FA000002AF7EE081A42EE401A61EE801AB0EEFF
:100FB000610A7047DF59375F10B52DED028BB0EE37
:100FC000408AB0EE480AFFF7AFF9BDEC028B10BDC6
:100FD0002DE9F0412DED028B9AB00546B0EE408A26
:100FE0000E461746984600201790189019901490B6
:100FF000159016904DB146B13FB1B8F1000F04D035
:10100000B5EEC08AF1EE10FA05D100201AB0BDECA1
:10101000028BBDE8F08196ED000A8DED170A96ED82
:10102000010A8DED180A96ED020A8DED190A97ED69
:10103000000A8DED140A97ED010A8DED150A97ED62
:10104000020A8DED160A17AA14A928460BF008FA11
:10105000402104A8FFF7BBF9002000900190029006
:101060000390002417A904A80DF018FA00BF30E07F
:1010700004A800EB041090ED000AD5ED000A20EE64
:10108000200A04A800EB0410D0ED010A95ED011A26
:1010900000EE810A04A800EB0410D0ED020A95EDE1
:1010A000021A00EE810A04A800EB0410D0ED030A36
:1010B00095ED031A00EE810A20EE080AF0EE000A10
:1010C00080EE201A684600EB840080ED001A601C58
:1010D000C4B2042CCCDB002410E005EB840090EDBE
:1010E000000A684600EB8400D0ED000A30EE200ACA
:1010F00005EB840080ED000A601CC4B2042CECDB1C
:1011000028460DF083F8012080E710B507F082FD36
:1011100005F014FF10BDF0EE400AF5EEC00AF1EE46
:1011200010FA02DBB0EE600A7047F5EEC00AF1EE8D
:1011300010FA02D2B1EE600AF6E7B0EE600AF3E709
:1011400090ED001AB4EEC01AF1EE10FA02DD80ED57
:10115000000A08E090ED001AB4EEE01AF1EE10FA81
:1011600001D2C0ED000A704730B5B0F90040B0F9C7
:101170000850AC420CDAB0F9004004F50054B0F964
:101180000850611BB0F90040B0F90850621B14E030
:10119000B0F90040B0F90850AC4202D10021002261
:1011A0000BE0B0F90040A4F50054B0F90850611B01
:1011B000B0F90040B0F90850621B002901DD0C466F
:1011C00000E04C42002A01DD154600E05542AC42E9
:1011D00001DC0B4600E01346C4681C44C46004886C
:1011E000048130BD10B52DED068BB0EE408A18EEAF
:1011F000100AFFF7AFFA41EC190B9FED1F0B53ECF0
:10120000102BFFF7D3FA12D818EE100AFFF7A2FA44
:1012100041EC1A0B9FED1A0B53EC102BFFF783F9DF
:1012200041EC190BFFF7DAFA08EE100A1EE018EE8F
:10123000100AFFF78FFA41EC190B9FED130B53ECDB
:10124000102BFFF79BFA11D818EE100AFFF782FA5D
:1012500041EC1A0B9FED0A0B53EC102BFFF7C2F871
:1012600041EC190BFFF7BAFA08EE100AB0EE480A83
:10127000BDEC068B10BD00004AD8124DFB21094081
:101280004AD8124DFB2119404AD8124DFB2109C002
:10129000B0EE401A71EE601AB0EE610ADFED0D1A81
:1012A000B4EEE10AF1EE10FA06DDDFED0B1A70EE96
:1012B000611AB0EE610A0CE0DFED081AB4EEE10A43
:1012C000F1EE10FA05D2DFED041A70EE211AB0EE3D
:1012D000610A7047DA0F4940DA0FC940DA0F49C096
:1012E00000BFFEE700B58BB00121082005F074FEB9
:1012F0000121480605F090FE0121480605F09CFEFC
:1013000000214FF0007005F097FE032009900220A5
:101310008DF8280000208DF82A0003208DF8290080
:1013200001208DF82B0009A92D4802F017FE092293
:1013300000212B4802F05AFE09220121284802F020
:1013400055FE00208DF81E0001208DF81F000020A2
:101350008DF820008DF821008DF822008DF82300F3
:101360008DF81A008DF81B0005208DF81C00012057
:101370008DF81D000520ADF8180006A9194800F0E9
:1013800018FB00208DF812008DF8130001208DF855
:1013900014000020ADF80800ADF80A00ADF80C000C
:1013A000ADF80E00ADF8100001208DF8150002A870
:1013B00000F0E2F9012202210A4800F0F1FA1420BB
:1013C0008DF8040001208DF8050000208DF806003E
:1013D00001208DF8070001A805F0B6FB0BB000BD99
:1013E000000C0240006400402DE9F04186B0074641
:1013F0000C4615461E46DDF8308000208DF80D00A5
:101400008DF80C0008208DF80E000197200A8DF849
:101410000F008DF81040290A8DF811108DF8125028
:10142000310A8DF813108DF814604FEA18218DF8E9
:1014300015108DF8168001A9024800F0BCFB06B01B
:10144000BDE8F0810064004000B585B00221094884
:1014500000F016FA58B10221064800F039F96A4640
:101460000021044800F02FFB684600F037FC05B06F
:1014700000BD00000064004000B58BB001210220D7
:1014800005F0AAFD0121880605F0C6FD01218806A8
:1014900005F0D2FD00214FF0806005F0CDFD4FF446
:1014A0004050099002208DF8280000208DF82A0075
:1014B00003208DF8290001208DF82B0009A92E4862
:1014C00002F04CFD09220C212B4802F08FFD09226D
:1014D0000D21294802F08AFD00208DF81E00012010
:1014E0008DF81F0000208DF820008DF821008DF868
:1014F00022008DF823008DF81A008DF81B000520BE
:101500008DF81C0001208DF81D000520ADF8180095
:1015100006A91A4800F04DFA0E208DF8120000209E
:101520008DF8130001208DF814000020ADF808009C
:10153000ADF80A00ADF80C00ADF80E00ADF81000E3
:1015400001208DF8150002A800F016F901220221F1
:101550000A4800F025FA40208DF8040001208DF89B
:10156000050000208DF8060001208DF8070001A875
:1015700005F0EAFA0BB000BD00040240006800402C
:101580002DE9F04186B007460C4615461E46DDF8AB
:10159000308000208DF80D008DF80C0008208DF8AB
:1015A0000E000197200A8DF80F008DF81040290ACF
:1015B0008DF811108DF81250310A8DF813108DF836
:1015C00014604FEA18218DF815108DF8168001A9C6
:1015D000024800F0F0FA06B0BDE8F0810068004073
:1015E00000B585B00221094800F04AF958B102213E
:1015F000064800F06DF86A460021044800F063FADE
:10160000684600F0A5FC05B000BD00000068004081
:101610002DE9F04186B007460C4615461E46DDF81A
:10162000308000208DF80D008DF80C0008208DF81A
:101630000E000197200A8DF80F008DF81040290A3E
:101640008DF811108DF81250310A8DF813108DF8A5
:1016500014604FEA18218DF815108DF8168001A935
:10166000024800F0A8FA06B0BDE8F081006400402E
:101670002DE9F04186B007460C4615461E46DDF8BA
:10168000308000208DF80D008DF80C0008208DF8BA
:101690000E000197200A8DF80F008DF81040290ADE
:1016A0008DF811108DF81250310A8DF813108DF845
:1016B00014604FEA18218DF815108DF8168001A9D5
:1016C000024800F078FA06B0BDE8F08100640040FE
:1016D000B1F5007F3AD00FDC202928D006DC0129A3
:1016E0001CD004291DD0082940D11DE0402921D05B
:1016F000B1F5807F3AD126E0B1F5004F31D006DC5C
:10170000B1F5806F25D0B1F5006F2FD124E0B1F590
:10171000803F12D0B1F5003F28D111E0154A826018
:1017200025E00822C26022E01022C2601FE00822E9
:1017300002611CE01022026119E00822426016E0FA
:101740001022426013E00422426010E00422426052
:101750000DE0042242600AE000228261042242601D
:1017600005E0002282610422426000E000BF00BF69
:10177000704700000101010010B50021837A0122A9
:1017800002FA03F13D4A126842F001023B4B1A6033
:101790003A4A1C3212688A43384B1C331A60027B67
:1017A000CAB9364A0C3212688A43344B0C331A6079
:1017B0004288C38842EA0343304A4032847A42F87E
:1017C00034300288838842EA03432C4A4032847AC8
:1017D00002EBC4025360027B012A19D1274A0C3262
:1017E00012680A43254B0C331A604288038842EA88
:1017F0000343224A4032847A42F83430C2888388D4
:1018000042EA03431D4A4032847A02EBC402536029
:10181000C27A3AB9194A121D12688A43174B1B1D26
:101820001A6006E0154A121D12680A43134B1B1D6D
:101830001A60028932B9114A143212688A430F4B76
:1018400014331A600289012A06D10C4A1432126834
:101850000A430A4B14331A60427B012A06D1074A15
:101860001C3212680A43054B1C331A60034A126883
:1018700022F00102014B1A6010BD0000006600401A
:1018800070B504460D46002660692840002871D0D6
:10189000B5F5807F5CD010DC082D35D006DC012D3D
:1018A00020D0022D24D0042D72D127E0102D31D06C
:1018B000202D35D0402D6BD138E0B5F5004F60D0EC
:1018C00009DCB5F5007F49D0B5F5806F4CD0B5F592
:1018D000006F5DD14FE0B5F5803F2DD0B5F5003FED
:1018E00056D12FE0A0682D4901F0A0FA064651E03C
:1018F000E068032101F09AFA06464BE0E06808210F
:1019000001F094FA064645E0E068102101F08EFAF5
:1019100006463FE02069032101F088FA064639E0D7
:101920002069082101F082FA064633E0206910217F
:1019300001F07CFA06462DE06068082101F076FA95
:10194000064627E06068102101F070FA064621E0A3
:10195000A069012101F06AFA06461BE0A069022194
:1019600001F064FA064615E0A069042101F05EFA70
:1019700006460FE00FE0A069702101F057FA064615
:1019800008E06068042101F051FA064602E0FFE732
:10199000002600BF00E00026304670BD01010100B6
:1019A0001AB143690B43436102E043698B434361CE
:1019B000704730B5024600200023146824F002046A
:1019C0001460146844F00104146000E05B1C546867
:1019D00004F001041CB94FF6FF74A342F6D1546819
:1019E00004F001040CB900206CE08C79012C04D1C6
:1019F000146844F08004146003E0146824F0800448
:101A00001460CC79012C04D1146844F040041460B3
:101A100003E0146824F0400414600C7A012C04D113
:101A2000146844F02004146003E0146824F02004D7
:101A300014604C7A012C04D1146844F01004146032
:101A400003E0146824F0100414608C7A012C04D193
:101A5000146844F00804146003E0146824F00804D7
:101A60001460CC7A012C04D1146844F0040414608E
:101A700003E0146824F0040414608C78A407CD7883
:101A800044EA05640D7944EA05444D7944EA055475
:101A90000D886D1E2C43D461146824F00104146079
:101AA000002300E05B1C546804F001041CB14FF6F5
:101AB000FF74A342F6D1546804F001040CB1002075
:101AC00000E0012030BD10B500F5D87303EB011321
:101AD0001B6803F004031372137A53B900F5D8732B
:101AE00003EB01131B6840F2FF7404EA53531360C5
:101AF00009E000F5D87303EB01131B686FF0604435
:101B000004EAD303536000F5D87303EB01131B6899
:101B100003F00203537200F5D87303EB01135B6803
:101B200003F00F03937200F5D87303EB01135B68A6
:101B30001B0AD37400F5D87303EB01139B68D372AF
:101B400000F5D87303EB01139B681C0A147300F5AE
:101B5000D87303EB01139B681C0C547300F5D87306
:101B600003EB01139B681B0E937300F5D87303EB13
:101B70000113DB68D37300F5D87303EB0113DB6843
:101B80001C0A147400F5D87303EB0113DB681C0CFA
:101B9000547400F5D87303EB0113DB681B0E9374C8
:101BA00021B9C36843F02003C36003E0036943F035
:101BB0002003036110BD10B502460020936803F0B6
:101BC0008063B3F1806F00D110E0936803F000638D
:101BD000B3F1006F01D1012008E0936803F0805356
:101BE000B3F1805F01D1022000E00420042874D00A
:101BF00002F5C07303EB00131B6803F0010402F548
:101C0000C07303EB00131C600B7A7BB94B7A0C8812
:101C100043EA445302F5C07404EB001424682343E0
:101C200002F5C07404EB0014236010E00B7A4C68DA
:101C300043EAC4034C7A234302F5C07404EB001456
:101C40002468234302F5C07404EB001423608B7AEC
:101C500003F00F038B7202F5C07303EB00135B6894
:101C600023F00F0402F5C07303EB00135C6002F570
:101C7000C07303EB00135B688C7A234302F5C074D6
:101C800004EB001463608B7B1C064B7B44EA03442B
:101C90000B7B44EA0323CC7A234302F5C07404EBA4
:101CA0000014A3608B7C1C064B7C44EA03440B7C31
:101CB00044EA0323CC7B234302F5C07404EB0014F5
:101CC000E36002F5C07303EB00131B6843F00104EB
:101CD00002F5C07303EB00131C6010BD10B5044681
:101CE0002068A0F20120112822D2DFE800F00922AA
:101CF0003B546D89A5C1DDF8212121212121F60068
:101D0000207BE17A00EB012000B28F490880A17BA3
:101D1000607B01EB002000B28B494880217CE07B96
:101D200001EB002000B2884988800846FFF71CFAC2
:101D300007E1207BE17A00EB012000B282490882B2
:101D4000A17B607B01EB002001B27F484182217CB6
:101D5000E07B01EB002001B27B4881821030FFF76D
:101D600003FAEEE0207BE17A00EB012000B2764935
:101D70000884A17B607B01EB002001B272484184A2
:101D8000217CE07B01EB002001B26F488184203090
:101D9000FFF7EAF9D5E0207BE17A00EB012000B201
:101DA00069490886A17B607B01EB002001B266488F
:101DB0004186217CE07B01EB002001B262488186F4
:101DC0003030FFF7D1F9BCE0207BE17A00EB012055
:101DD00000B25D49A1F84000A17B607B01EB0020CF
:101DE00001B25948A0F84210217CE07B01EB0020B1
:101DF00001B25548A0F844104030FFF7B5F9A0E013
:101E0000207BE17A00EB012000B24F49A1F850009D
:101E1000A17B607B01EB002001B24B48A0F852107F
:101E2000217CE07B01EB002001B24748A0F8541070
:101E30005030FFF799F984E0207BE17A00EB012034
:101E400000B24149A1F86000A17B607B01EB00205A
:101E500001B23D48A0F86210217CE07B01EB00203C
:101E600001B23948A0F864106030FFF77DF968E0EE
:101E7000207BE17A00EB012000B23349A1F8700029
:101E8000A17B607B01EB002001B22F48A0F872100B
:101E9000217CE07B01EB002001B22B48A0F87410FC
:101EA0007030FFF761F94CE0207BE17A00EB012014
:101EB00000B22549A1F80001A17B607B01EB002065
:101EC00001B22148A0F80211217CE07B01EB002047
:101ED00001B21D48A0F8041133E019E0FFE7207BB0
:101EE000E17A00EB012000B21749A1F81001A17BB3
:101EF000607B01EB002001B21348A0F81211217C95
:101F0000E07B01EB002001B20F48A0F8141118E0AB
:101F1000E17A207B01EB00200C490880617BA07BEB
:101F200001EB002009494880E17B207C01EB002087
:101F300006498880617CA07C01EB00200349C880B1
:101F400000BF00BF10BD00007C0900200C00002075
:101F50000168A1F2012108291DD2DFE801F0041D6A
:101F6000364F68819AB3017BC27A01EB022109B234
:101F7000624AA2F88010827B417B02EB01210AB207
:101F80005E49A1F88220027CC17B02EB01210AB2EA
:101F90005A49A1F88420AEE0017BC27A01EB02210C
:101FA00009B2564AA2F89010827B417B02EB0121D4
:101FB0000AB25249A1F89220027CC17B02EB0121B6
:101FC0000AB24E49A1F8942095E0017BC27A01EB58
:101FD000022109B2494AA2F8A010827B417B02EBA0
:101FE00001210AB24549A1F8A220027CC17B02EB83
:101FF00001210AB24149A1F8A4207CE0017BC27A08
:1020000001EB022109B23D4AA2F8B010827B417B6C
:1020100002EB01210AB23949A1F8B220027CC17B4E
:1020200002EB01210AB23549A1F8B42063E0017B3B
:10203000C27A01EB022109B2304AA2F8C010827BB9
:10204000417B02EB01210AB22C49A1F8C220027C9B
:10205000C17B02EB01210AB22849A1F8C4204AE061
:10206000017BC27A01EB022109B2244AA2F8D01006
:10207000827B417B02EB01210AB22049A1F8D220E8
:10208000027CC17B02EB01210AB21C49A1F8D420D9
:1020900031E0017BC27A01EB022109B2174AA2F8B2
:1020A000E010827B417B02EB01210AB21349A1F8C7
:1020B000E220027CC17B02EB01210AB20F49A1F8A8
:1020C000E42018E0017BC27A01EB022109B20B4A3D
:1020D000A2F8F010827B417B02EB01210AB2074992
:1020E000A1F8F220027CC17B02EB01210AB2034974
:1020F000A1F8F42000BF00BF704700007C09002059
:1021000010B50446207808281DD2DFE800F0041C32
:10211000080C1C141810204600F0BAFC13E02046EE
:1021200000F048FA0FE0204600F012F90BE02046DC
:1021300000F082FB07E0204600F07EFB03E0204633
:1021400000F07AFB00BF00BF94EDAF0AD4EDB00AF7
:1021500030EE600AD4EDB10A30EE600A84EDB40AC4
:1021600094EDAF0AD4EDB00A30EE200AD4EDB10AF6
:1021700030EE600A84EDB50A94EDAF0AB1EE400A84
:10218000D4EDB00A30EE200AD4EDB10A30EE600A88
:1021900084EDB60A94EDAF0AB1EE400AD4EDB00A70
:1021A00030EE600AD4EDB10A30EE600A84EDB70A71
:1021B00000201FE004F5347101EB800191ED000A6D
:1021C000F1EE080AB4EEE00AF1EE10FA11DD04F5C2
:1021D000347101EB800191ED000A20EE000AF1EE6E
:1021E000080A80EE201A04F5347101EB800181EDBC
:1021F000001A401C0428DDDB10BD0246002002E06E
:1022000022F81010401C0428FADB704700B5034682
:10221000002205E0191D01EBC20000F049FC521C30
:10222000042AF7DB00BD000010B504460020207032
:1022300002234FF4166242F210719FED431ADFED54
:10224000420A9FED420A04F148000BF06DF90223A7
:102250004FF4166242F210719FED3B1ADFED3A0A1D
:102260009FED3A0A04F1C0000BF05EF902234FF42F
:10227000166242F210719FED341ADFED330A9FEDC2
:10228000330A04F59C700BF04FF902234FF41662E9
:1022900042F210719FED2C1ADFED2B0A9FED2B0AF5
:1022A00004F5D8700BF040F902230C2206219FEDB3
:1022B000261ADFED250AB2EE090A04F50A700BF0C2
:1022C00033F940F20121002001F0CEFE606040F2BF
:1022D0000221002001F0C8FEE06040F2032100204E
:1022E00001F0C2FE60614FF40171002001F0BCFEFC
:1022F000E0610AF041FC6062606AD0F85700A062B9
:10230000606AB0F85B10E162606AB0F85010216357
:10231000002008E09FED0C0A04F5347101EB800108
:1023200081ED000A401C0428F4DB02F0E9FFC4F848
:10233000C80201F0F1FEC4F8A802002104F53870CB
:10234000FFF75BFF10BD0000000000000000164515
:1023500010B50446D4F8A802007D00F01000002853
:102360004AD000208C4908608C4908608C4908607C
:10237000D4F8A802007D00F0010020B18748006871
:102380000A3086490860D4F8A802007D00F00200F7
:1023900020B1824800680A3880490860D4F8A80251
:1023A000007D00F0040020B17B4800680A387A49BB
:1023B0000860D4F8A802007D00F0080020B176483B
:1023C00000680A3074490860D4F8A802007D00F063
:1023D000800020B1724800680A3871490860D4F85A
:1023E000A802007D00F0400000284ED06C48006834
:1023F0000A306B49086048E0002067490860674977
:10240000086067490860D4F8A802007D00F0010068
:1024100020B162480068001D60490860D4F8A80235
:10242000007D00F0020020B15C480068001F5B499D
:102430000860D4F8A802007D00F0040020B15648DE
:102440000068001F54490860D4F8A802007D00F01D
:10245000080020B150480068001D4F490860D4F8BA
:10246000A802007D00F0800020B14D480068001FE8
:102470004B490860D4F8A802007D00F0400020B16C
:1024800047480068001D4649086004F52A74206822
:10249000B0F9000000EE100AB8EEC00A9FED411A34
:1024A000C0EE010A3C4890ED000AB8EEC00AB2EE58
:1024B000041A00EE810ABDEEC00A80ED000A206811
:1024C000B0F9020000EE100AB8EEC00A9FED351A0E
:1024D000C0EE010A314890ED000AB8EEC00AB2EE33
:1024E000041A00EE810ABDEEC00A80ED000A206ADF
:1024F000D0ED000AF1EE600AB0EE600AFDF714FFBD
:10250000294880ED000A206AD0ED000AF1EE600A49
:10251000B0EE600AFDF7CCFE244880ED000AD0ED55
:10252000000A1D4890ED000AB8EEC00A20EE800AAD
:102530001D4890ED001A1948D0ED000AF8EEE00AA7
:1025400001EE200A84ED050A174890ED000AF1EE2D
:10255000400A114890ED000AB8EEC00A20EE800A49
:10256000124890ED001A0D48D0ED000AF8EEE00A8E
:1025700001EE200A84ED060A206AA4F52A74D0ED43
:10258000000AB0EE600ADFED0A0A04F50A700AF0EC
:10259000C9FE84EDB10A10BD480700204C07002099
:1025A0005007002000002544340700203807002091
:1025B00000000000D0F8A812097D01F010010029E8
:1025C0004AD000216C4A11606C4A11606C4A11605B
:1025D000D0F8A812097D01F0010121B1674909680D
:1025E0000A31664A1160D0F8A812097D01F0020193
:1025F00021B1624909680A39604A1160D0F8A8120D
:10260000097D01F0040121B15B4909680A395A4A80
:102610001160D0F8A812097D01F0080121B15649D6
:1026200009680A31544A1160D0F8A812097D01F0F6
:10263000800121B1524909680A39514A1160D0F824
:10264000A812097D01F0400100294ED04C490968CB
:102650000A314B4A116048E00021474A1160474A5D
:102660001160474A1160D0F8A812097D01F00101FC
:1026700021B142490968091D404A1160D0F8A812E9
:10268000097D01F0020121B13C490968091F3B4A5B
:102690001160D0F8A812097D01F0040121B136497A
:1026A0000968091F344A1160D0F8A812097D01F0A9
:1026B000080121B130490968091D2F4A1160D0F87D
:1026C000A812097D01F0800121B12D490968091F77
:1026D0002B4A1160D0F8A812097D01F0400121B108
:1026E00027490968091D264A1160D0F8A812B1F9D6
:1026F000001000EE101AB8EEC00A9FED221AC0EECC
:10270000010A1D4991ED000AB8EEC00AB2EE041AA2
:1027100000EE810A80EDAF0AD0F8A812B1F90210DC
:1027200000EE101AB8EEC00A9FED161AC0EE010AAC
:10273000124991ED000AB8EEC00AB2EE041A00EE9A
:10274000810A80EDB00AD0F8A812B1F9081000EEA5
:10275000101AB8EEC00A9FED0B1AC0EE010A084924
:1027600091ED000AB8EEC00AB2EE041A00EE810A3A
:1027700080EDB10A704700003C07002040070020B0
:102780004407002000002544D0F8A812C97A022985
:1027900002D1002101703FE0D0F8A812C97A0329C4
:1027A00002D10221017037E0D0F8A812C97A0129BC
:1027B00032D11F490968032901D101702CE01D495C
:1027C000097801F0800189B9D0F8A812097D01F0DB
:1027D000800159B10178052902D00178062902D17A
:1027E0000321017018E00521017015E011490978F5
:1027F00001F0400181B9D0F8A812097D01F0400133
:1028000051B10178052902D00178062902D10321AE
:10281000017001E006210170D0F8A812898A054AEA
:102820001160D0F8A812C97A014A116070470000FF
:10283000600700205C07002010B52DED048B0446D6
:10284000D4F8A802B0F9000000EE100AF8EEC00AB1
:102850009FED8A1A80EE810AF2EE040A20EE200A29
:10286000B0EE408AD4F8A802B0F9020000EE100AD7
:10287000F8EEC00A9FED811A80EE810AF2EE040A9A
:1028800020EE200AF0EE408AD4F8A802B0F9080041
:1028900000EE100AF8EEC00A9FED781A80EE810A69
:1028A000F2EE040A20EE200AB0EE409A9FED740A80
:1028B00084EDAF0A9FED720A84EDB00A9FED700AB5
:1028C00084EDB10AD4F8A802007D00F01000E8B34E
:1028D0009FED6B0A84EDAF0A9FED690A84EDB00AA3
:1028E0009FED670A84EDB10AD4F8A802007D00F0DC
:1028F000010028B1B2EE040A38EE800AF0EE408AF8
:10290000D4F8A802007D00F0020028B1B2EE040A5B
:1029100038EEC00AF0EE408AD4F8A802007D00F03C
:10292000040028B1B2EE040A38EE400AB0EE408A44
:10293000D4F8A802007D00F0080028B1B2EE040A25
:1029400038EE000AB0EE408A207800E00EE006285B
:1029500004D1B2EE040AB0EE409A52E02078052885
:102960004FD1BAEE040AB0EE409A4AE09FED440A15
:1029700084EDAF0A9FED420A84EDB00A9FED400A54
:1029800084EDB10AD4F8A802007D00F0010028B15E
:10299000B1EE000A38EE800AF0EE408AD4F8A802C0
:1029A000007D00F0020028B1B1EE000A38EEC00A46
:1029B000F0EE408AD4F8A802007D00F0040028B1AF
:1029C000B1EE000A38EE400AB0EE408AD4F8A80210
:1029D000007D00F0080028B1B1EE000A38EE000AD0
:1029E000B0EE408A2078062804D1B1EE000AB0EE9D
:1029F000409A06E02078052803D1B9EE000AB0EE2F
:102A0000409AD4F8C802D0ED000AF1EE600AB0EEA8
:102A1000600AFDF789FC1B4880ED000AD4F8C80263
:102A2000D0ED000AF1EE600AB0EE600AFDF740FC5E
:102A3000154880ED000A90ED000A20EE080A1148C2
:102A4000D0ED000A00EEA80A84EDAF0A90ED000A6E
:102A5000B1EE400A20EE080A0B48D0ED000A00EE65
:102A6000A80A84EDB00A84EDB19AD4F8A802808A4D
:102A700006490860BDEC048B10BD00000000254431
:102A80000000000034070020380700205407002011
:102A90009FED060A80EDAF0A9FED040A80EDB00AB3
:102AA0009FED020A80EDB10A7047000000000000AF
:102AB0000168B1F9021000EE101AB8EEC00ADFED9D
:102AC000030A20EE200A80ED010A70471792A63A09
:102AD00010B50446207880B99FED240A84EDB80A29
:102AE0009FED220A84EDB90A9FED200A84EDBA0A0F
:102AF0009FED1E0A84EDBB0A37E094EDB41AF0EEA8
:102B0000410A94ED021AB0EE410A04F1480000F0C7
:102B10008BF884EDB80A94EDB51AF0EE410A94ED05
:102B2000041AB0EE410A04F1C00000F07DF884ED13
:102B3000B90A94EDB61AF0EE410A94ED061AB0EE19
:102B4000410A04F59C7000F06FF884EDBA0A94ED28
:102B5000B71AF0EE410A94ED081AB0EE410A04F5F6
:102B6000D87000F061F884EDBB0A10BD00000000D1
:102B700008B564200BF090FF2748FFF755FB0024B1
:102B800012E0C4EB0411254A02EBC100022341F21A
:102B9000883242F228319FED221ADFED210A9FEDA3
:102BA000210A0AF0C1FC641C042CEADB33E01A4859
:102BB000FFF7EAFD1848FFF729FB1748FFF7A0FACF
:102BC0001548FFF785FF144890EDBB0ABDEEC00A1B
:102BD00010EE100A80B200900F4890EDBA0ABDEED8
:102BE000C00A10EE100A83B20B4890EDB90ABDEE90
:102BF000C00A10EE100A82B2074890EDB80ABDEE86
:102C0000C00A10EE100A81B24FF40070FEF7ECFB20
:102C100001200BF041FFCAE71026022030290220D4
:102C200000000000CDCC0C4110B52DED0A8B044600
:102C3000B0EE408AF0EE608A84ED0D8AC4ED0C8A15
:102C400094ED0C0AD4ED0D0A30EE600A84ED080A0A
:102C5000E06B012866D194ED000AD4ED080A20EE5D
:102C6000200A10EE101A0846FDF774FDC4E90401AD
:102C700094ED010AD4ED0B0A20EE200A84ED060A39
:102C800094ED080AD4ED090A30EE600AD4ED020A88
:102C900020EE200A84ED070A94ED0B0AD4ED080A11
:102CA00030EE200A84ED0B0A9FED5F0A04F12C0040
:102CB00004F0EEF8D4ED110AB0EE600A04F1180049
:102CC00004F0E6F894ED070A10EE101A0846FDF736
:102CD00041FD41EC1A0B94ED060A10EE101A08465D
:102CE000FDF738FD41EC1C0B94ED041BB0EE410ADE
:102CF000F0EE610A53EC102BFDF774FB41EC1B0B5B
:102D000053EC1A2BFDF76EFB41EC190BFDF766FD3A
:102D1000A063D4ED100AB0EE600A04F1380004F0AC
:102D2000B7F874E0E06B022871D194ED080AD4ED95
:102D3000090A30EE600AD4ED000A20EE200A10EEF7
:102D4000101A0846FDF706FDC4E9040194ED010AD6
:102D5000D4ED080A20EE200A84ED060A94ED080A54
:102D6000D4ED090AB0EE001A01EE600AD4ED0A0AA9
:102D700030EE200AD4ED020A20EE200A84ED070A84
:102D8000D4ED110AB0EE600A04F1180004F080F8E6
:102D900094ED070A10EE101A0846FDF7DBFC41EC33
:102DA0001A0B94ED060A10EE101A0846FDF7D2FC35
:102DB00041EC1C0B94ED041BB0EE410AF0EE610AED
:102DC00053EC102BFDF70EFB41EC1B0B53EC1A2BB5
:102DD000FDF708FB41EC190BFDF700FDA06494ED35
:102DE000140AD4ED120A30EE200A84ED130A94ED91
:102DF000130A84ED0E0AD4ED100AB0EE600A04F155
:102E0000380004F045F894ED130A84ED140A94EDAB
:102E1000090A84ED0A0A94ED080A84ED090A94ED82
:102E20000E0ABDEC0A8B10BD00401C460246002075
:102E300002EA01030BB1012000E00020704708E026
:102E40000BF030FA09F0B6FD09F0D6FD64200BF066
:102E500023FEF5E72DE9F84F07460C4690464FF064
:102E60000009CA4600250026A346A01D009004259F
:102E7000A7F1500010283AD2DFE800F01608190F29
:102E80001E2326292C2F3239393939354FF0340990
:102E900003254FF0400A01262BE04FF03D090325A2
:102EA0004FF02E0A012624E04FF0300921E04FF0C8
:102EB00037094FF003081CE04FF03A094FF00308C0
:102EC00017E04FF0410914E04FF0450911E04FF0D1
:102ED00049090EE04FF04D090BE04FF0510908E0B1
:102EE0004FF0550905E01448D0F8009001E0BDE826
:102EF000F88F00BFB8F1030F01D1032500265DB1A3
:102F00006A000E4901EB49005946FDF747FA294688
:102F100048460B4A126890475EB17200074901EBC0
:102F20004A000099FDF73AFA31465046044A1268C1
:102F3000904700BFDBE70000A40700202C2C0220F4
:102F40009007002070B506460C4604F080008028EB
:102F500008D104F07F0000EB800106F58E7000EBD5
:102F6000C10507E004F07F0000EB800106F55D700D
:102F700000EBC10504F07F00287004F08000C00958
:102F800068702946304607F01CFD002070BD70B502
:102F900006460C4604F08000802808D104F07F002B
:102FA00000EB800106F58E7000EBC10505E004EB37
:102FB000840106F55D7000EBC1050020A87004F0E7
:102FC0007F002870C4F3C01068702946304607F0AF
:102FD000D0FC002070BD2DE9F04106460D4690461C
:102FE0001F4605F08000802808D105F07F0000EB27
:102FF000800106F58E7000EBC10407E005F07F004C
:1030000000EB800106F55D7000EBC10405F07F0068
:10301000207005F08000C0096070C4F80880E77077
:10302000607808B12078E080022F01D10020207163
:103030002146304607F051FC0020BDE8F0812DE923
:10304000F04105460E461746984606F07F0000EB15
:10305000800105F55D7000EBC104E760C4F81480E1
:103060000020A061607006F07F002070E8780128E1
:1030700000D12761207820B92146284607F051FB6E
:1030800003E02146284607F01BFD0020BDE8F08143
:1030900008B500220092009A61F30A1200920269B8
:1030A0001268009B1A4303691A6008BD70B5064692
:1030B0000C4604F08000802808D104F07F0000EB6B
:1030C000800106F58E7000EBC10505E004EB84017C
:1030D00006F55D7000EBC1050120A87004F07F00CB
:1030E0002870C4F3C01068702946304607F0B6FC5B
:1030F000002070BD2DE9F04107460D461646984662
:1031000005F07F0000EB800107F58E7000EBC10435
:103110000120607005F07F002070E66026610020CD
:10312000A061C4F81480207820B92146384607F001
:10313000F8FA03E02146384607F0C2FC0020BDE85B
:10314000F081000030B587B00546594C284607F09D
:10315000AEFA01A803F0A0FF029CE868C0680590E1
:10316000059820F4705005900598E968C8602846D5
:1031700007F06EFE03280BD10020A8704FF40070FA
:10318000A880059820F4705000F5105005907EE05E
:103190000120A8704020A8804648844209D34648B0
:1031A000844206D2059820F4705000F560500590D6
:1031B0006DE04148844209D34048844206D20598D4
:1031C00020F4705000F55050059060E03B48844278
:1031D00009D33B48844206D2059820F4705000F58C
:1031E0004050059053E03648844209D33548844224
:1031F00006D2059820F4705000F53050059046E056
:103200003048844209D33048844206D2059820F4DD
:10321000705000F52050059039E02B48844209D3C6
:103220002A48844206D2059820F4705000F51050C8
:1032300005902CE02548844209D32548844206D2D3
:10324000059820F4705000F5005005901FE02048CC
:10325000844209D31F48844206D2059820F4705056
:1032600000F5E050059012E01A48844209D31A484C
:10327000844206D2059820F4705000F5C0500590A5
:1032800005E0059820F4705000F5A05005900598D1
:10329000E968C86000200690069820F4005000F508
:1032A000005006900698E9684861012007B030BDDB
:1032B000007A030AC0E1E4000024F400E0EC040119
:1032C00000C31801002D310140A44C0100366E01ED
:1032D00040E2950180C3C90160600B02F8B5054664
:1032E000002400200090284607F0F3FD064681E008
:1032F00006F0010000287BD0E1B2284600F0F6FA83
:103300000090009800F0010030B3012000FA04F7AB
:103310002869406BB84329694863002000900098F1
:1033200020F00100401C009005F1180050F8240026
:1033300000998160E1B232480068426828469047AF
:10334000E878012808D13CB940F21110405D04280A
:1033500002D1284607F090FA0098C0F3C00060B18F
:1033600000200090009820F008000830009005F13F
:10337000180050F82400009981600098C0F30010F4
:1033800060B100200090009820F0100010300090F4
:1033900005F1180050F82400009981600098C0F3EE
:1033A000801060B100200090009820F04000403074
:1033B000009005F1180050F82400009981600098F1
:1033C000C0F3400060B100200090009820F002009F
:1033D000801C009005F1180050F8240000998160CD
:1033E0000098C0F3C01018B12146284600F092FAA8
:1033F000641C7608002E7FF47BAF0120F8BD00002E
:10340000440800207CB50446002500200190204699
:1034100007F067FD06466FE006F00100002869D05E
:10342000E9B2204607F065FD0190019800F0010027
:10343000C8B300200190019820F00100401C0190C9
:1034400004F1540050F8250001998160E0780128CA
:1034500017D104F1540050F825000069009005EBE5
:10346000850104F55D7000EBC10080680099C1F32F
:103470001201411A05EB850204F55D7000EBC200F4
:103480008161E9B21E480068026820469047E078F2
:10349000012808D13DB940F21110005D052802D184
:1034A000204607F0E9F90198C0F3400060B1002020
:1034B0000190019820F00200801C019004F154005A
:1034C00050F82500019981600198C0F3C00088B1CF
:1034D0000B480068816820468847002001900198C9
:1034E00020F008000830019004F1540050F8250045
:1034F000019981606D1C7608002E8DD101207CBD64
:10350000440800203EB50446A07A78B1D4F80C01F6
:1035100000680090009820F002000090009820F0D1
:10352000010000900099D4F80C0101600020019086
:10353000019820F00100401C019020694068019929
:1035400088432169486009480068816920468847A6
:1035500000200290029820F0004000F1004002900C
:103560000298E168486101203EBD00004408002047
:103570007CB5044600200190019820F01000103026
:103580000190E068806901998843E1688861E0689A
:10359000006A0090009800F00F0000EB800104F535
:1035A0005D7000EBC1050098C0F3434007282DD2A1
:1035B000DFE800F02C04051D1E2C1F0027E00098FA
:1035C000C0F30A1090B10098C0F30A122046E968CF
:1035D00007F099FCE8680099C1F30A110844E86013
:1035E000A8690099C1F30A110844A8610FE00EE030
:1035F0000DE0082204F2CC51204607F084FCA869B3
:103600000099C1F30A110844A86100E000BF00BF9F
:10361000E068806901990843E168886101207CBD08
:1036200038B5044608480068C1682046884700202D
:103630000090009820F00800083000900098E168A1
:103640004861012038BD0000440800201FB5044631
:10365000002000904FF48970005D009023480068BE
:1036600041692046884720698068019000200390C6
:10367000039820F4006000F5006003900398E1686F
:103680004861A07A70B3019800F0010050B340F295
:103690001510005D012825D19DF80000032821D1D7
:1036A00000200290029820F00100401C0290D4F803
:1036B0000C01006802990843D4F80C1108600298C4
:1036C00020F00200801C0290D4F80C0100680299DE
:1036D0000843D4F80C1108600548006840F0060063
:1036E00003490860012004B010BD00004408002018
:1036F00010ED00E030B587B004460020029006903F
:103700000590049003900190029820F00100401C65
:10371000029020694068029988432169486000212D
:10372000204607F06BFB00250BE0FF2104F1180099
:1037300050F82500816004F1540050F825008160A4
:103740006D1C6078A842F0D84FF0FF31206981618C
:1037500006986FF30F00401C0690069880B200F5A3
:103760008030069006992069C161059820F0080014
:1037700008300590059820F00100401C0590059840
:1037800020F00200801C0590059920694161049891
:1037900020F00100401C0490049820F0080008303C
:1037A0000490049820F00200801C04900499206981
:1037B0000161206900680390039820F4FE60039083
:1037C000039920690160204607F056F80020019017
:1037D000019820F4805000F5805001900198E16834
:1037E000486104480068016920468847012007B005
:1037F00030BD0000440800202DE9F04106460F4688
:103800003946304607F094FB01214FF48970815509
:103810000021801C8155002511E005EB850106F58E
:103820008E7000EBC104012060702570E5800020DF
:10383000E0704020A0600020E06060616D1C707846
:10384000A842EAD8002510E005EB850106F55D7079
:1038500000EBC104002060702570E580E07040201E
:10386000A0600020E06060616D1C7078A842EBD819
:10387000304606F00BFF304606F035FD002130469D
:1038800007F0BEFB304606F0C1FD304607F07EFA79
:10389000BDE8F08138B50446002000900748006874
:1038A000C16920468847009820F4801000F58010F8
:1038B00000900098E1684861012038BD440800206C
:1038C00038B504460020009007480068016A204689
:1038D0008847009820F4001000F500100090009830
:1038E000E1684861012038BD4408002030B5024637
:1038F00015692B6915696C6B24FA01F505F0010552
:1039000043EAC51302F1180555F82150AD6805EAE0
:10391000030030BD2DE9F84306460F460025002080
:10392000009007EB870106F58E7000EBC104D4E927
:103930000501451AA068A84200D2A568E81C4FEA14
:10394000900906F1180050F827008069009029E0DE
:10395000D4E90501451AA068A84200D2A568E81C70
:103960004FEA9009ABB2FAB23046E16807F08BFB40
:10397000E0682844E060A0692844A06106F11800CE
:1039800050F8270080690090D4E90501884209D1E8
:103990002178012000FA01F83069406B20EA080024
:1039A00031694863009880B2484506D9D4E90510CA
:1039B000884202D260690028CAD10120BDE8F8839C
:1039C00000B597B001214FF0401003F005FB012135
:1039D000202003F041FB082209214D4800F006FB9E
:1039E00008220E214A4800F001FB11A800F02EFB2E
:1039F0004FF48440119002208DF8480000208DF88B
:103A00004A0002208DF8490001208DF84B0011A9D1
:103A10003F4800F0A3FA3F4805F012FC4FF4E130B4
:103A200013900020ADF85000ADF85200ADF85400EE
:103A30000C20ADF856000020ADF8580013A9354809
:103A400005F0D2FC1021334805F0CCFB012240F2F6
:103A50002441304805F0A3FC012240212D4805F007
:103A6000E5FB01212B4805F0D5FB47208DF84000F0
:103A700005208DF8410000208DF8420001208DF8CE
:103A8000430010A803F060F80021234800F0F8F884
:103A9000214800F001F94FF0206001901D48001D01
:103AA00002901E48039000200490C820059000203A
:103AB00006904FF4806007900020089009904FF422
:103AC00080700A904FF440300B9000200C900D90C5
:103AD0000E900F9001A9104800F000FA00220F4943
:103AE000C8310D4800F08FF901210B4800F080F932
:103AF00001221021084800F0D3F90021064800F007
:103B0000BFF80121044800F0BBF817B000BD000069
:103B10000018024000140140286402404C2D02208D
:103B20004748B0F90000474908604548B0F902002D
:103B300048604348B0F9040088604148B0F9060085
:103B4000C8603F48B0F9080008613D48B0F90C0072
:103B500048613B48B0F90E0088613948B0F910005F
:103B6000C8613748807C08623548C07C4862344868
:103B7000808A886234480068002853D1084600686B
:103B800000284FD13048406800284BD10846406893
:103B9000002847D12C488068002843D10846806817
:103BA00000283FD12848C06800283BD10846C0689B
:103BB000002837D12448006998BB0846006980BBBB
:103BC0002148406968BB0846406950BB1E4880696F
:103BD00038BB0846806920BB1B48C06908BB084643
:103BE000C069F0B91848006AD8B90846006AC0B977
:103BF0001548406AA8B90846406A90B91248806AD8
:103C000078B90846806A60B9002006E00D4951F88D
:103C100020100D4A42F82010401C0C28F6DB002032
:103C20007047FFE7002006E0064951F82010064AD9
:103C300042F82010401C0C28F6DB0120F0E70000C1
:103C4000CC1B0220E41B0220141C02200246094B5C
:103C50009A4201D2084801E00648103801F00053AA
:103C60001BB1064B0B40C36002E0044B0B4083606A
:103C70007047000010640240006002407D0F7D0F1D
:103C800021B1026842F00102026003E0026822F002
:103C90000102026070470000016821F0010101602B
:103CA0000021016041608160C160016121214161A9
:103CB0004A49884204D13D21484A103A91608CE03B
:103CC00046491831884205D14FF47461434A103A8D
:103CD000916082E041493031884205D14FF474113E
:103CE0003E4A103A916078E03C494831884205D11B
:103CF0004FF07461394A103A91606EE03749603193
:103D0000884204D13649354A103AD16065E03349DA
:103D10007831884204D13349304A103AD1605CE0AE
:103D20002E499031884204D12F492C4A103AD16053
:103D300053E02A49A831884205D14FF03D51274A26
:103D4000103AD16049E02949884204D13D21274AEF
:103D5000083A116041E025491831884205D14FF4F5
:103D60007461224A083A116037E0204930318842B4
:103D700005D14FF474111D4A083A11602DE01B491A
:103D80004831884205D14FF07461184A083A1160F1
:103D900023E016496031884204D11149134A121FA9
:103DA00011601AE011497831884204D10D490F4A57
:103DB000121F116011E00D499031884204D10A4967
:103DC0000A4A121F116008E00849A831884204D14C
:103DD0004FF03D51054A121F1160704710600240BC
:103DE0003D000020400F002000003D2010640240F4
:103DF00021B1026842F48022026003E0026822F4EA
:103E000080220260704722B1036843F400230360FC
:103E100003E0036823F40023036001617047014657
:103E2000486880B27047014600200A6802F4002208
:103E30000AB1012000E000207047000070B5024682
:103E4000002000240025124EB24201D2114B01E0A5
:103E50000F4B103B104E0E4036B11E2606EAD12401
:103E6000166806EA040502E0566906F0800501F0CE
:103E700000560EB15C6800E01C68084E344004EA4D
:103E8000010616B10DB1012000E0002070BD000058
:103E900010640240006002403C0F3C0F7D0F7D0F1C
:103EA00010B501F080034BB122B1436943F08003A8
:103EB000436103E0436923F08003436180290BD011
:103EC0002AB1036801F01E042343036004E0036881
:103ED00001F01E04A343036010BD000010B50022D2
:103EE0000268134B1A40CC680B6823434C69234388
:103EF0008C692343CC6923430C6A23434C6A2343D4
:103F00008C6A23434C6B23438C6B23431A4302601C
:103F1000426922F00702D1E90B3423431A4342617C
:103F20000B6943604B6883608B68C36010BD000001
:103F30003F801CF00AB1016100E0C1607047416040
:103F40007047704710B50446204608F0B1FD10BD1B
:103F50000149086070470000143C0140F0B50A4672
:103F600000210023002400BF3DE0012505FA01F3F4
:103F7000156805EA03049C4234D105684F00032606
:103F8000BE40B543056015794E00B540066835431F
:103F900005601579012D02D01579022D16D185689D
:103FA0004F000326BE40B543856055794E00B540AD
:103FB000866835438560456801268E40B543456077
:103FC000456896798E40B6B235434560C5684F0066
:103FD0000326BE40B543C560D5794E00B540C668DE
:103FE0003543C560491C1029BFD3F0BDF0B500238F
:103FF00000244D07ED0E02FA05F3CE1000F1200566
:1040000055F826504E07F70E0F26BE40B543CF1089
:1040100000F1200646F82750CE1000F1200555F893
:10402000265045EA0304CE1000F1200545F826404D
:10403000F0BD0246002013690B400BB1012000E0E7
:104040000020704741837047018370474FF6FF712E
:1040500001600021017141718171C17170470000DF
:10406000004870470C000020024612B1012A4BD1D3
:1040700027E0A1F201200A2822D2DFE800F005079C
:104080000A0D101316191C1E2148704720481030C5
:10409000FBE71F482030F8E71D483030F5E71C48A3
:1040A0004030F2E71A485030EFE719486030ECE74B
:1040B00017487030E9E71748E7E716481030E4E79B
:1040C00022E0A1F2012008281DD2DFE800F0040759
:1040D0000A0D101316190E488030D6E70D487038B7
:1040E000D3E70C486038D0E70A485038CDE7094894
:1040F0004038CAE707483038C7E706482038C4E7E1
:1041000004481038C1E700BF00BF0020BDE7000031
:104110007C0900207C0A002000487047CC1B02204C
:104120000146652923D007DC072932D2DFE801F0F8
:10413000310D101316191C00A1F16600052828D2B4
:10414000DFE800F0181B1E21240040F20110704728
:104150004FF48170FBE740F20310F8E74FF48270F0
:10416000F5E740F20510F2E74FF48370EFE740F215
:104170006510ECE74FF4B370E9E740F26710E6E74B
:104180004FF4B470E3E740F26910E0E74FF4B57024
:10419000DDE700BF0020DAE770B50A480468001DBB
:1041A0000568001D0668344454B1082206492046BB
:1041B00001F014FD042204491031284601F00EFDDF
:1041C00070BD0000107AFF1F860800200168B1F959
:1041D000021000EE101AB8EEC00ADFED3A0A20EE27
:1041E000200A80ED010A416991ED000ADFED360AEF
:1041F00080EE201A9FED350A21EE000A80ED080AB4
:10420000D0ED020A0168B1F9021000EE101AB8EE02
:10421000C00A30EE800A80ED020AD0ED020A9FED5E
:104220002C1A80EE810A9FED2B1AC0EE010A9FED39
:104230002A1A80EE810ADFED290A20EE200AF2EE2A
:10424000040A20EE600A80ED030A016891ED030A7A
:10425000F8EEC00A9FED221A80EE810A9FED1E1A29
:10426000C0EE010A9FED1D0A20EE800AF2EE0C0A54
:1042700020EE600A80ED040A1A4991ED020A80EDF1
:104280000C0A90ED0C0AB5EEC00AF1EE10FA17D048
:10429000016CA9B990ED0C0A80ED0D0A90ED0D0AA4
:1042A000F2EE0E0A30EE200A80ED0E0A90ED0D0AB5
:1042B000F2EE0E0A30EE600A80ED0F0A0121016471
:1042C000704700001792A63A00003443DB0F4940C4
:1042D00000007A44000070420070604500003B43DB
:1042E000000000467417022010B52DED048B044623
:1042F0002068B0F9000000EE100AB8EEC00ADFED49
:104300001E0A30EE600ADFED1C0A80EE201A9FEDD7
:104310001B0A21EE000A84ED030A606890ED000A92
:10432000DFED170A80EE201A9FED140A21EE000A35
:1043300084ED040A94ED051AF0EE410A94ED031A97
:10434000B0EE410AFCF7A4FF84ED060A2168B1F93A
:104350000200FCF7CFF941EC190B9FED0A0B53EC6F
:10436000102BFCF758F941EC180BFCF737FAA06258
:10437000BDEC048B10BD000000008045DB0F494000
:1043800000003443CDCCCCCCCC8C774010B52DED97
:10439000028B04464FF4CD60005990ED000A04F5FD
:1043A000CA6080ED120AD0ED0A0AB0EE600AFBF78F
:1043B0007FFFD4F8A006D0ED020A20EE208A04F593
:1043C000CA60D0ED0A0AB0EE600AFBF7ADFFD4F880
:1043D000A006D0ED010A00EE608A04F5C46080ED0D
:1043E0000B8ABDEC028B10BD10B52DED068B04467B
:1043F000D4F8A406B0F90C0000EE100AB8EEC00A1A
:10440000BF48D0ED000A80EE20AAD4F8A416B1F976
:104410000400FCF76FF941EC190B9FEDBA0B53EC5C
:10442000102BFCF786F841EC180BFCF7D7F900EEDF
:10443000100AF1EE400A9FEDB51A80EE810ADFED19
:10444000B40A10EE20AA04F5806080EDACAA40F218
:104450002460005990ED000AAE4880ED000A00206B
:10446000AD4908600846006838BBAC48008800F4D5
:10447000007010BBD4F8A406808A00F40070E0B18C
:10448000A4480068FCF766F941EC1A0B9FEDA40BF9
:1044900053EC102BFBF7A6FF41EC190BFCF79EF930
:1044A00008EE100AB0EE480AFCF79CFE9E4880ED2C
:1044B000000A01209849086011E097480068012827
:1044C0000DD19648008800F4007040B9D4F8A406D5
:1044D000808A00F4007010B100208F490860924873
:1044E000D0ED000A8B4890ED001A70EEC10AB0EED4
:1044F000600AFCF777FEB0EE408AFCF70CFEDFEDB9
:104500008B0AB4EEE00AF1EE10FA02D200208249E2
:1045100008608148006801281CD18348D0ED000A5A
:104520007C4890ED001A70EEC10AB0EE600AFCF70C
:1045300059FEB5EEC00AF1EE10FA05DD9FED7C0ADA
:104540007C4880ED000A0DE09FED7B0A794880ED04
:10455000000A07E07048006820B99FED780A7548A6
:1045600080ED000AD4F8A406808A6C49086004F53E
:10457000806090EDAC0A6F48D0ED000A30EE200A62
:1045800004F5806080EDAC0ADFED6D0A9FED6D0AE9
:1045900004F5D660FCF7D4FD04F5806090EDB00A18
:1045A000D0EDAC0A30EE200A80EDB00AD0EDB00AB2
:1045B000B0EE600AFCF716FE04F5806080EDB00AEC
:1045C00090EDB01AF0EE410A04F5C46090ED041AC3
:1045D000B0EE410A04F5B87000F0DAF904F5806035
:1045E00080EDB60A90EDB61AF0EE410A04F5C4600B
:1045F00090ED0A1AB0EE410A04F5547008F092FEEC
:10460000B1EE400A04F5806080EDB80AD4F8A40643
:10461000B0F90E0000EE100AB8EEC00A4A48D0ED1C
:10462000000A80EE20AAD4F8A416B1F90600FCF71F
:1046300061F841EC190B9FED450B53EC102BFBF788
:10464000EAFF41EC180BFCF7C9F800EE100A9FEDE9
:104650002F1AC0EE010A9FED2E0A10EE80AA04F573
:10466000806080EDADAA90EDAD0AB5EEC00AF1EE26
:1046700010FA08D104F5CA6090ED080A04F58060CC
:1046800080EDB10A09E004F5806090EDB10AD0ED4B
:10469000AD0A30EE200A80EDB10AFEEE000AB6EE59
:1046A000000A04F2C460FCF74BFD04F5806090ED55
:1046B000B11AF0EE410A04F5CA6090ED081AB0EEA6
:1046C000410A04F5A66008F02DFEB1EE400A04F59B
:1046D000806080EDB70A90EDB71AF0EE410A04F55C
:1046E000CA6090ED011AB0EE410AA83808F01AFE2F
:1046F00004F5DC6080ED010ABDEC068B10BD000006
:10470000A80600203FABCC94D6DF123F0000344314
:10471000DA0F4940B0060020C0060020C80600207D
:10472000CDCCCC7CCA5D0540B4060020CDCCCC3DC0
:10473000A69BC43BCC060020A69BC4BB0000000087
:104740008FC2F5BC8FC2F53CAC0600200000000013
:1047500000C8C94010B504469FED7D3ADFED7D2AC3
:104760009FED7D2AF6EE001A03230A2211469FEDE3
:104770007B1ADFED7B0AB3EE090A04F1F80008F0BA
:1047800015FF9FED733ADFED772A9FED732AF6EE62
:10479000001A03230A2211469FED731ADFED700AF7
:1047A000B3EE090A04F1800008F000FF9FED683ABB
:1047B000DFED6C2A9FED682AF6EE001A0323002233
:1047C00009219FED6A1ADFED660AB1EE040A04F5CD
:1047D000B87008F0EBFE012300220A219FED621A57
:1047E000DFED5F0AB2EE0C0A04F5F47008F09CFEEF
:1047F000012300220A219FED5A1ADFED590AB2EE79
:104800000E0A04F5A66008F08FFE0123002241F293
:1048100088319FED531ADFED520A9FED550A04F5DA
:10482000B56008F081FE01230A2211469FED4C1A63
:10483000DFED4B0A9FED4F0A04F5187008F074FE87
:10484000012341F2883246F2A8119FED451AF1EE9C
:10485000040A9FED490A04F5547008F065FE01232F
:1048600041F2883246F2A8119FED3D1AF0EE000A9F
:104870009FED420A04F5727008F056FE012341F2E2
:10488000883246F2A8119FED361AF2EE040A9FED27
:104890003C0A04F5976008F047FE012341F2883294
:1048A00046F2A8119FED2E1ADFED2D0A9FED350A75
:1048B00004F5886008F038FE40F205210020FFF77B
:1048C000D3FBC4F8200640F206210020FFF7CCFB02
:1048D000C4F8500608F04CF9C4F89C0608F044F9F6
:1048E000C4F8A00608F044F9083040F224610851E9
:1048F00008F03EF940F26461085108F035F90830DB
:104900004FF4C561085108F02FF94FF4CD610851FB
:1049100000214FF4D2600151FFF7FEFBC4F8A4065A
:104920009FED190A04F5C46080ED050A9FED170A92
:10493000303080ED090A9FED0A0A04F5806080EDB1
:10494000B80A9FED070A04F5DC6080ED010A10BD8E
:1049500017B7D1383333733FCDCC4C3D0000FA4408
:10496000000000008FC2753F0000964400806D4437
:104970000000164500007A4400A00C460080A244C6
:1049800000409C4600401C46295C8FBFCDCCCCBF6C
:1049900010B52DED0A8B0446B0EE408AF0EE608A29
:1049A00084ED0D8AC4ED0C8A94ED0C0AD4ED0D0A49
:1049B00030EE600A84ED080AD4ED080AB0EE600A11
:1049C000FCF710FC84ED080A94ED080AD4ED160AF1
:1049D000B4EEE00AF1EE10FA0FD294ED080AD4ED2D
:1049E000160AF1EE600AB4EEE00AF1EE10FA04DD08
:1049F0009FEDEA0ABDEC0A8B10BDE06B012866D181
:104A000094ED000AD4ED080A20EE200A10EE101AE8
:104A10000846FBF79FFEC4E9040194ED010AD4EDBA
:104A20000B0A20EE200A84ED060A94ED080AD4ED64
:104A3000090A30EE600AD4ED020A20EE200A84ED65
:104A4000070A94ED0B0AD4ED080A30EE200A84ED33
:104A50000B0A9FEDD30A04F12C0002F019FAD4EDF1
:104A6000110AB0EE600A04F1180002F011FA94ED98
:104A7000070A10EE101A0846FBF76CFE41EC1A0B01
:104A800094ED060A10EE101A0846FBF763FE41EC9F
:104A90001C0B94ED041BB0EE410AF0EE610A53ECDE
:104AA000102BFBF79FFC41EC1B0B53EC1A2BFBF775
:104AB00099FC41EC190BFBF791FEA063D4ED100AB1
:104AC000B0EE600A04F1380002F0E2F95AE1E06B5E
:104AD000022873D194ED080AD4ED090A30EE600A79
:104AE000D4ED000A20EE200A10EE101A0846FBF75B
:104AF00031FEC4E9040194ED010AD4ED080A20EE68
:104B0000200A84ED060A94ED080AD4ED090AB0EEF5
:104B1000001A01EE600AD4ED0A0A30EE200AD4ED44
:104B2000020A20EE200A84ED070AD4ED110AB0EE45
:104B3000600A04F1180002F0ABF994ED070A10EED8
:104B4000101A0846FBF706FE41EC1A0B94ED060A14
:104B500010EE101A0846FBF7FDFD41EC1C0B94ED1E
:104B6000041BB0EE410AF0EE610A53EC102BFBF788
:104B700039FC41EC1B0B53EC1A2BFBF733FC41ECDB
:104B8000190BFBF72BFEA06494ED140AD4ED120A66
:104B900030EE200A84ED130A94ED130A84ED0E0A18
:104BA000D4ED100AB0EE600A04F1380002F070F99A
:104BB00094ED130A84ED140AE4E0FFE7E06B0328A8
:104BC00084D194ED000AD4ED080A20EE200A10EEFC
:104BD000101A0846FBF7BEFDC4E90401E06D012888
:104BE00006D194ED080AB5EEC00AF1EE10FA53DCD6
:104BF000E06D401C30B994ED080AB5EEC00AF1EE44
:104C000010FA49D3D4ED080AB0EE600A02F0FAF8BF
:104C1000D4ED190AB4EEE00AF1EE10FA08D894EDDA
:104C20000B0AD4ED080A30EE200A84ED0B0A33E0BB
:104C3000D4ED080AB0EE600A02F0E4F8D4ED190AE7
:104C400094ED181A70EE810AB4EEE00AF1EE10FA53
:104C500004DB9FED520A84ED0B0A1DE0D4ED080A37
:104C6000B0EE600A02F0CEF8D4ED180A94ED191AED
:104C700070EE810A30EEC00AD4ED180A80EE201AD8
:104C800084ED1A1A94ED0B0AD4ED1A0A94ED081A61
:104C900000EE810A84ED0B0A94ED010AD4ED0B0AB3
:104CA00020EE200A84ED060A94ED080AD4ED090AE4
:104CB00030EE600AD4ED020A20EE200AD4ED1B0A81
:104CC000B7EE001A71EE600A20EE200AD4ED1B0A3E
:104CD00094ED1C1A00EE810A84ED070A94ED070A90
:104CE00010EE101A0846FBF735FD41EC1A0B94ED57
:104CF000060A10EE101A0846FBF72CFD41EC1C0BBF
:104D000094ED041BB0EE410AF0EE610A53EC102B57
:104D1000FBF768FB41EC1B0B53EC1A2BFBF762FB18
:104D200041EC190BFBF75AFDA06394ED0E0AD4ED8C
:104D3000100AB4EEE00AF1EE10FA06DD94ED100A66
:104D400084ED0E0A0120E06501E00020E06594EDAD
:104D50000E0AD4ED100AF1EE600AB4EEE00AF1EEAC
:104D600010FA09D294ED100AB1EE400A84ED0E0A51
:104D70004FF0FF30E06501E00020E06594ED070AA8
:104D800084ED1C0A94ED090A84ED0A0A94ED080AE0
:104D900084ED090A94ED0E0A2CE6000000000000E4
:104DA00000409C462E490978012912D0017801293A
:104DB0000FD100F5C46191ED060A00F5806181ED27
:104DC000B00A00F5CA6191ED080A00F5806181ED35
:104DD000B10A23490978022915D00178022912D194
:104DE0001F49097879B100F5C46191ED060A00F513
:104DF000806181EDB00A00F5CA6191ED080A00F505
:104E0000806181EDB10A017802290DD10021144A97
:104E1000117049B19FED130A00F5806181EDB00A70
:104E20009FED100A81EDB10A0D490978062912D0CB
:104E3000017806290FD100F5C46191ED040A00F54F
:104E4000806181EDB00A00F5CA6191ED080A00F5B4
:104E5000806181EDB10A0178014A1170704700004C
:104E6000000700200000000010B50446207860B95B
:104E70009FED100A04F5806080EDB80A9FED0D0AE1
:104E800004F5DC6080ED010A13E02078022803D1EC
:104E9000204600F0F1F80CE02078012803D12046EC
:104EA00000F06AF805E02078062802D12046FFF7D6
:104EB0009BFA10BD0000000010B50446FEF730FE5E
:104EC000012803D100202949086001E0FEF728FEEF
:104ED0002648006840F2DC51884208DD207802282C
:104EE00002D02078032811D1012020700EE0D4F8E0
:104EF000A406C07A032802D10220207006E0D4F86C
:104F0000A406C07A012801D106202070D4F8A40696
:104F1000C07A03280DD116480068022809D19FEDF8
:104F2000150A04F5806080EDB00A9FED120A80ED4D
:104F3000B10AD4F8A406C07A022806D0D4F8A40690
:104F4000C07A0B490968884202D0002007490860EE
:104F5000D4F8A406C07A022801D100202070D4F829
:104F6000A406C07A0249086010BD0000F8060020BF
:104F7000FC0600200000000010B504469FED3B0A2F
:104F800004F5806080EDAC0A9FED380A80EDAD0A33
:104F900090EDB00AD0EDAC0A30EE200A80EDB00AF8
:104FA00090EDB10AD0EDAD0A30EE200A80EDB10AE5
:104FB000FEEE000AB6EE000A04F2C460FCF7C0F888
:104FC000DFED2B0A9FED2B0A04F5D860FCF7B8F84B
:104FD00004F5806090EDB11AF0EE410A04F5CA6064
:104FE00090ED0A1AB0EE410A04F1F80000F08CF9D5
:104FF00004F5806080EDB70A90EDB71AF0EE410A33
:1050000004F5CA6090ED111AB0EE410A04F5727011
:1050100008F088F904F5DC6080ED010A04F5806091
:1050200090EDB01AF0EE410A04F5C46090ED061A56
:10503000B0EE410A04F1800000F066F904F58060EA
:1050400080EDB60A90EDB61AF0EE410A04F5C460A0
:1050500090ED0A1AB0EE410A04F5547008F062F9B6
:1050600004F5806080EDB80A10BD0000000000006B
:105070003333F3BF3333F33F10B52DED068B0446C6
:10508000D4F8A406B0F90C0000EE100AB8EEC00A7D
:105090006E48D0ED000A80EE20AAD4F8A416B1F92B
:1050A0000400FBF727FB41EC190B9FED690B53EC58
:1050B000102BFBF73EFA41EC180BFBF78FFB00EED1
:1050C000100A9FED651AC0EE010A9FED640A00EE1A
:1050D00080AA04F5806080EDACAADFED610A9FED47
:1050E000610A04F5D660FCF72BF804F5806090EDBA
:1050F000B00AD0EDAC0A30EE200A80EDB00ADFED48
:105100005A0A9FED5A0A04F5D860FCF719F804F51D
:10511000806090EDB01AF0EE410A04F5C46090EDA5
:10512000061AB0EE410A04F18000FFF731FC04F5E5
:10513000806080EDB60A90EDB61AF0EE410A04F5F3
:10514000C46090ED0A1AB0EE410A04F5547008F0FC
:10515000E9F804F5806080EDB80AD4F8A406B0F947
:105160000E0000EE100AB8EEC00A4148D0ED000A69
:1051700080EE20AAD4F8A416B1F90600FBF7BAFA1B
:1051800041EC190B9FED3B0B53EC102BFBF743FA53
:1051900041EC180BFBF722FB00EE100A9FED2E1AD4
:1051A000C0EE010A9FED2D0A10EE80AA04F5806082
:1051B00080EDADAA90EDAD0AB5EEC00AF1EE10FAA1
:1051C00008D104F5CA6090ED080A04F5806080ED0E
:1051D000B10A09E004F5806090EDB10AD0EDAD0AA6
:1051E00030EE200A80EDB10AFEEE000AB6EE000AAB
:1051F00004F2C460FBF7A4FF04F5806090EDB11ADF
:10520000F0EE410A04F5CA6090ED081AB0EE410ACA
:1052100004F5A66008F086F8B1EE400A04F5806057
:1052200080EDB70A90EDB71AF0EE410A04F5CA60B6
:1052300090ED011AB0EE410AA83808F073F804F5B1
:10524000DC6080ED010ABDEC068B10BDA8060020D5
:105250003FABCC94D6DF123F00003443DA0F494015
:10526000A69B44BBA69B443B3333F3BF3333F33F8E
:10527000AC0600200000000000C8C94008B5FA20B4
:1052800009F00AFC1A48FFF765FA2FE01948FFF702
:105290002BF818483030FEF799FF1548FFF776F8DD
:1052A0001348FFF709FE1248FFF77CFD1048FFF78F
:1052B000DBFD002000901048008883B20D48C0300C
:1052C00090ED010ABDEEC00A10EE100A82B20B4842
:1052D00090EDB80ABDEEC00A10EE100A81B240F29D
:1052E000FF10FCF781F8012009F0D6FBCEE70000A3
:1052F000481C0220682202201006002048200220BC
:10530000004870478022022010B52DED0A8B04461C
:10531000B0EE408AF0EE608A84ED0D8AC4ED0C8A0E
:1053200094ED0C0AD4ED0D0A30EE600A84ED080A03
:10533000D4ED080AB0EE600AFBF754FF84ED080ACA
:10534000E06B012866D194ED000AD4ED080A20EE46
:10535000200A10EE101A0846FBF7FCF9C4E9040114
:1053600094ED010AD4ED0B0A20EE200A84ED060A22
:1053700094ED080AD4ED090A30EE600AD4ED020A71
:1053800020EE200A84ED070A94ED0B0AD4ED080AFA
:1053900030EE200A84ED0B0A9FED5F0A04F12C0029
:1053A00001F076FDD4ED110AB0EE600A04F11800A8
:1053B00001F06EFD94ED070A10EE101A0846FBF797
:1053C000C9F941EC1A0B94ED060A10EE101A0846C2
:1053D000FBF7C0F941EC1C0B94ED041BB0EE410A45
:1053E000F0EE610A53EC102BFAF7FCFF41EC1B0BBB
:1053F00053EC1A2BFAF7F6FF41EC190BFBF7EEF919
:10540000A063D4ED100AB0EE600A04F1380001F098
:105410003FFD74E0E06B022871D194ED080AD4EDF1
:10542000090A30EE600AD4ED000A20EE200A10EEE0
:10543000101A0846FBF78EF9C4E9040194ED010A3D
:10544000D4ED080A20EE200A84ED060A94ED080A3D
:10545000D4ED090AB0EE001A01EE600AD4ED0A0A92
:1054600030EE200AD4ED020A20EE200A84ED070A6D
:10547000D4ED110AB0EE600A04F1180001F008FD45
:1054800094ED070A10EE101A0846FBF763F941EC99
:105490001A0B94ED060A10EE101A0846FBF75AF99B
:1054A00041EC1C0B94ED041BB0EE410AF0EE610AD6
:1054B00053EC102BFAF796FF41EC1B0B53EC1A2B15
:1054C000FAF790FF41EC190BFBF788F9A06494ED13
:1054D000140AD4ED120A30EE200A84ED130A94ED7A
:1054E000130A84ED0E0AD4ED100AB0EE600A04F13E
:1054F000380001F0CDFC94ED130A84ED140A94ED0C
:10550000090A84ED0A0A94ED080A84ED090A94ED6B
:105510000E0ABDEC0A8B10BD00409C4670B50646D5
:105520003048007800285BD12F480068B0F5006F44
:1055300002D100202C4908602B4800682B490968DB
:10554000884203D100202749087070BD26480068B2
:1055500026490968884206D923480068C0F50060DA
:105560002349086006E0214800681F490968401A7D
:105570001F4908601E480068402811D91A48008851
:1055800085B2402418480068403017490860184820
:10559000006840381649086001201249087018E078
:1055A0001148008885B21248008884B20E4800680D
:1055B0000F49096808440C49086000200C4908603C
:1055C000402C03D102200749087002E00120054960
:1055D000087008484219234681213046FDF78AFDAC
:1055E00000BFB2E7B8080020B0080020AC080020D7
:1055F000B40800202E34022000BFFEE7F0B50546B7
:10560000059C00207FE093ED050A00EB4006404F2B
:1056100007EB8606D6ED000A20EE200AD3ED060A37
:1056200000EB400607EB860696ED011A00EE810AB4
:10563000D3ED070A00EB400607EB860696ED021A4B
:1056400000EE810A334E06EB8006D6ED000A30EEFE
:10565000200A05EB800686ED000A93ED010A00EBB7
:1056600040062D4F07EB8606D6ED000A20EE200AF5
:10567000D3ED020A00EB400607EB860696ED011A11
:1056800000EE810AD3ED030A00EB400607EB860625
:1056900096ED021A00EE810A204E06EB8006D6ED4A
:1056A000000A30EE200A01EB800686ED000A94ED38
:1056B000010A00EB40061A4F07EB8606D6ED000AFA
:1056C00020EE200AD4ED020A00EB400607EB860626
:1056D00096ED011A00EE810AD4ED030A00EB4006B4
:1056E00007EB860696ED021A00EE810A0D4E06EBD8
:1056F0008006D6ED000A30EE200A02EB800686ED29
:10570000000A461CF0B20328FFF67DAFF0BD000092
:105710003805002090160220680500209C16022003
:105720008C050020B81602202DED028B82B00A20D5
:1057300009F0B2F900BF07F093FC0028FBD100BFCD
:1057400007F070FB0028FBD10AF03AF80190A7E1BE
:10575000012101A809F0CEF91722D2493A2007F019
:10576000EDFCD149CF4807F005FDD049CD480F30B9
:1057700007F094FBCD48CC4BCD4ACE490090CE48A3
:10578000FFF73CFF00252DE0CB4800EB850090EDB6
:10579000000A10EE101A0846FAF7DCFF41EC180B6D
:1057A0009FEDC60B53EC102BFBF700F819D2C24843
:1057B00000EB850090ED000A10EE101A0846FAF78B
:1057C000C9FF41EC180B9FEDBF0B53EC102BFAF700
:1057D000D5FF06D29FEDBD0AB74800EB850080EDEE
:1057E000000A6D1C032DCFDBAF48007800F00100EC
:1057F000002846D0B6480078F0BB012141F288303D
:1058000002F026FEDFEDB30A9FEDB30AB34A012191
:10581000B34801F00DFBA64AA649B248FBF760FA6F
:10582000B14B1A1F111FAF4807F0AAF9A14890ED1C
:10583000000AAE4880ED000AAD4880ED000AAD4890
:1058400080ED000A9B4890ED010AA84880ED010A0E
:10585000A74880ED010AA74880ED010A954890ED20
:10586000020AA24880ED020AA14880ED020AA1487E
:1058700080ED020A964800E004E00078401C94495C
:105880000870BBE09A4890ED000A9A4880ED000A43
:10589000964890ED000A964880ED000A90ED000AC7
:1058A0009548D0ED000A20EE200A9248D0ED000A7B
:1058B000914890ED011A00EE810A7E48D0ED000A71
:1058C0008D4890ED021A00EE810A884880ED000AAA
:1058D000874890ED010A874880ED010A834890EDE2
:1058E000010A834880ED010A90ED010A8248D0ED5B
:1058F000000A20EE200A7F48D0ED010A7E4890ED94
:10590000011A00EE810A6B48D0ED010A7A4890ED49
:10591000021A00EE810A754880ED010A744890ED84
:10592000020A744880ED020A704890ED020A70483D
:1059300080ED020A90ED020A6F48D0ED000A20EED9
:10594000200A6C48D0ED020A6B4890ED011A00EE77
:10595000810A5848D0ED020A674890ED021A00EE1D
:10596000810A624880ED020A514B024652499FED7E
:10597000630A5C48FBF72CFB5B4B1A1F111F59484D
:1059800007F0FEF85E480088B8B95E4890ED000A5E
:105990005D4880ED000A5B4890ED010A5A4880EDB1
:1059A000010A584890ED020A574880ED020A54480F
:1059B0000088401C5249088020E051480088B0F51A
:1059C000FA6F14DA42F210715F2006F0E5FF4F48DB
:1059D000007830B134480278494B37494A4807F0DB
:1059E0006FF947480088401C4549088006E0444854
:1059F0000088B0F5FA6F01D106F0C2FF2A48D0ED59
:105A0000040AB0EE600A00F093F8002008F0E0FE0F
:105A10003F490860002440E004F134003D4931F979
:105A2000100000EE100AB8EEC00ADFED3B0A80EE6F
:105A3000201AB3EE000A21EE000A384800EB840079
:105A400080ED000A04F1370031F9100000EE100A71
:105A5000B8EEC00ADFED300A80EE201A9FED300A62
:105A600021EE000A2F4800EB840080ED000A04F1CB
:105A70003D0031F9100000EE100AB8EEC00ADFED6B
:105A8000260A80EE201A9FED280A21EE000A2748F8
:105A900000EB840080ED000A641C032CBCDB00BF1B
:105AA00056E600005816022070160220A8160220A2
:105AB000DC160220D0160220C4160220FCA9F1D266
:105AC0004D6270BFFCA9F1D24D62703F0000000032
:105AD000B10500200080894500A08C4588FC0008A5
